:020000040800F2
:100000000050002091540008B90B0008BB0B0008F9
:10001000BD0B0008BF0B0008C10B0008000000006A
:10002000000000000000000000000000C30B0008FA
:10003000C50B000800000000C70B0008C90B000832
:10004000D9540008D9540008D9540008D9540008DC
:10005000D9540008D9540008D10B0008DB0B000864
:10006000D9540008D9540008E50B0008D9540008F9
:10007000D9540008D9540008D9540008D9540008AC
:10008000D9540008D9540008D9540008D95400089C
:10009000F10B0008D9540008D9540008D9540008BD
:1000A000D9540008D9540008D9540008D95400087C
:1000B000D9540008D9540008D9540008D95400086C
:1000C000D9540008D9540008D9540008D95400085C
:1000D000D9540008D9540008D9540008D95400084C
:1000E000010C0008D9540008D95400080000000091
:1000F0000000000000000000000000000000000000
:0C01000000000000000000005FF808F1A3
:10010C0010B5054C237833B9044B13B10448AFF345
:10011C0000800123237010BD8C0100200000000022
:10012C003455000808B5034B1BB103490348AFF322
:10013C00008008BD0000000090010020345500082C
:10014C0080F0004002E000BF81F0004142001FBF80
:10015C005FEA410392EA030F7FEA226C7FEA236C89
:10016C006AD04FEA1262D2EB1363C1BFD21841407E
:10017C0048404140B8BF5B42192B88BF704710F014
:10018C00004F40F4000020F07F4018BF404211F0B7
:10019C00004F41F4000121F07F4118BF494292EA1F
:1001AC00030F3FD0A2F1010241FA03FC10EB0C004B
:1001BC00C3F1200301FA03F100F0004302D54942D8
:1001CC0060EB4000B0F5000F13D3B0F1807F06D385
:1001DC0040084FEA310102F10102FE2A51D2B1F17D
:1001EC00004F40EBC25008BF20F0010040EA030072
:1001FC007047490040EB0000013A28BFB0F5000FF2
:10020C00EDD2B0FA80FCACF1080CB2EB0C0200FAA7
:10021C000CF0AABF00EBC25052421843BCBFD040F6
:10022C001843704792F0000F81F4000106BF80F470
:10023C0000000132013BB5E74FEA41037FEA226C33
:10024C0018BF7FEA236C21D092EA030F04D092F0FE
:10025C00000F08BF0846704790EA010F1CBF002032
:10026C00704712F07F4F04D1400028BF40F000408F
:10027C00704712F100723CBF00F50000704700F0AF
:10028C00004343F0FE4040F4000070477FEA2262D6
:10029C0016BF08467FEA23630146420206BF5FEAA7
:1002AC00412390EA010F40F4800070474FF00003A7
:1002BC0004E000BF10F0004348BF40425FEA000C6E
:1002CC0008BF704743F0964301464FF000001CE016
:1002DC0050EA010208BF70474FF000030AE000BF6C
:1002EC0050EA010208BF704711F0004302D54042AA
:1002FC0061EB41015FEA010C02BF8446014600201C
:10030C0043F0B64308BFA3F18053A3F50003BCFA36
:10031C008CF2083AA3EBC25310DB01FA02FC6344E3
:10032C0000FA02FCC2F12002BCF1004F20FA02F2EA
:10033C0043EB020008BF20F00100704702F12002DD
:10034C0001FA02FCC2F1200250EA4C0021FA02F23E
:10035C0043EB020008BF20EADC7070474FF0FF0C43
:10036C001CEAD0521EBF1CEAD15392EA0C0F93EA3E
:10037C000C0F6FD01A4480EA010C400218BF5FEAE0
:10038C0041211ED04FF0006343EA501043EA511153
:10039C00A0FB01310CF00040B1F5000F3EBF49004D
:1003AC0041EAD3715B0040EA010062F17F02FD2A51
:1003BC001DD8B3F1004F40EBC25008BF20F0010034
:1003CC00704790F0000F0CF0004C08BF49024CEA4B
:1003DC00502040EA51207F3AC2BFD2F1FF0340EADD
:1003EC00C250704740F400004FF00003013A5DDC4E
:1003FC0012F1190FDCBF00F000407047C2F100028F
:10040C00410021FA02F1C2F1200200FA02FC5FEA7B
:10041C00310040F1000053EA4C0308BF20EADC70C5
:10042C00704792F0000F00F0004C02BF400010F437
:10043C00000F013AF9D040EA0C0093F0000F01F0E4
:10044C00004C02BF490011F4000F013BF9D041EA06
:10045C000C018FE70CEAD15392EA0C0F18BF93EA08
:10046C000C0F0AD030F0004C18BF31F0004CD8D132
:10047C0080EA010000F00040704790F0000F17BFB9
:10048C0090F0004F084691F0000F91F0004F14D0FF
:10049C0092EA0C0F01D142020FD193EA0C0F03D157
:1004AC004B0218BF084608D180EA010000F000405A
:1004BC0040F0FE4040F40000704740F0FE4040F435
:1004CC00400070474FF0FF0C1CEAD0521EBF1CEAD4
:1004DC00D15392EA0C0F93EA0C0F69D0A2EB0302F2
:1004EC0080EA010C49024FEA402037D04FF080538C
:1004FC0043EA111143EA10130CF000408B4238BF51
:10050C005B0042F17D024FF4000C8B4224BF5B1A5E
:10051C0040EA0C00B3EB510F24BFA3EB510340EAAC
:10052C005C00B3EB910F24BFA3EB910340EA9C005A
:10053C00B3EBD10F24BFA3EBD10340EADC001B01CA
:10054C0018BF5FEA1C1CE0D1FD2A3FF650AF8B426E
:10055C0040EBC25008BF20F0010070470CF0004C7B
:10056C004CEA50207F32C2BFD2F1FF0340EAC250A6
:10057C00704740F400004FF00003013A37E792F067
:10058C00000F00F0004C02BF400010F4000F013AC5
:10059C00F9D040EA0C0093F0000F01F0004C02BFC0
:1005AC00490011F4000F013BF9D041EA0C0195E729
:1005BC000CEAD15392EA0C0F08D142027FF47DAFC2
:1005CC0093EA0C0F7FF470AF084676E793EA0C0FB2
:1005DC0004D14B023FF44CAF08466EE730F0004CB0
:1005EC0018BF31F0004CCAD130F000427FF45CAF40
:1005FC0031F000437FF43CAF5FE700BF2DE9F043DF
:10060C0089B000240494059406940794434B9A698A
:10061C0042F010029A619A6902F010020092009A5C
:10062C009A6942F020029A619A6902F020020192C2
:10063C00019A9A6942F004029A619A6902F00402E2
:10064C000292029A9A6942F008029A619B6903F03D
:10065C0008030393039BDFF8C88022464FF478719C
:10066C00404601F0ADFA2F4D22466021284601F09C
:10067C00A7FA4FF4005304932B4F0597069404A943
:10068C002A4801F08BF9122304930597069404A9C8
:10069C00404601F083F94FF47873049301260596D4
:1006AC0006944FF00209CDF81C9004A9404601F0C5
:1006BC0075F904960597069404A9284601F06EF97D
:1006CC006023049305960694CDF81C9004A9284643
:1006DC0001F064F922462146062001F0A1FA062019
:1006EC0001F0D6FA22462146072001F099FA07209C
:1006FC0001F0CEFA224621460A2001F091FA0A2096
:10070C0001F0C6FA22462146282001F089FA282059
:10071C0001F0BEFA09B0BDE8F08300BF0010024042
:10072C0000080140000C01400000111000100140B5
:10073C00F8B5074600241AE00E4D00224FF48071E4
:10074C00284601F03DFA012606FA04F23A4052B26C
:10075C00003A18BF01224FF40071284601F030FA1C
:10076C0032464FF48071284601F02AFA3444072CA3
:10077C00E2DDF8BD0008014010B50C46FFF7D8FFCC
:10078C002046FFF7D5FF064C00222021204601F021
:10079C0017FA01222021204601F012FA10BD00BFE9
:1007AC00000C0140084A13680849096801FB03F36F
:1007BC000748A0FB0310C00800EB80004100581A4A
:1007CC001060C0B2704700BF080000200C00002071
:1007DC00CDCCCCCC10B50A4B01221A70094BFC22A3
:1007EC001A70002405E0FFF7DDFF074B18550134A4
:1007FC00E4B2064B93F900309C42F4DB10BD00BF11
:10080C007402002000000020A80100200400002039
:10081C0008B5022804D010282FD001284ED008BDCE
:10082C0000F064FC354B1B68C01A6328F7D900F044
:10083C005DFC334B1B68C01AB0F52F7F0AD2314BCD
:10084C001B7813B92F4B01221A7000F04FFC2C4B64
:10085C001860E4E72B4B1B78012B0AD000F046FC08
:10086C00274B1860FFF7B6FF00F040FC234B1860D5
:10087C00D5E7244B00221A70F0E700F037FC1F4B31
:10088C001B68C01A6328CAD91E4B1B7863B11E4B58
:10089C0093F90030012B02DD013B1B4A137000F071
:1008AC0025FC164B1860BAE7184B1B8840F28922BE
:1008BC009342F4D83233154A1380F0E700F016FC5B
:1008CC000E4B1B68C01A6328A9D90E4B1B7863B159
:1008DC000D4B93F900300E2B02DC01330A4A1370D6
:1008EC0000F004FC054B186099E7084B1B88962B0D
:1008FC00F6D9323B054A1380F2E700BF780200209C
:10090C007C02002075020020040000200200002060
:10091C0008B58F21FF20FFF72FFF4F21FF20FFF796
:10092C002BFF2021FF20FFF727FF1021FF20FFF7CF
:10093C0023FF08BD72B6FEE708B50A480A4B0360F0
:10094C004FF4E133436000238360C36003610C22E6
:10095C0042618361C36101F03DFA00B908BDFFF744
:10096C00E9FF00BF300200200044004000B58DB00C
:10097C000023089309930A930B9303930493059311
:10098C0006930793019302931848194A0260436037
:10099C0083604FF6FF72C26003614361836100F0B4
:1009AC0015FAD0B94FF48053089308A90F4800F0FA
:1009BC0045FAA0B900230393049303A90B4800F054
:1009CC00F1FA70B900230193029301A9074800F0D2
:1009DC0013FB40B90DB05DF804FBFFF7ABFFFFF75D
:1009EC00A9FFFFF7A7FFFFF7A5FF00BFE801002055
:1009FC00002C014000B585B00023019302930393B2
:100A0C001048114A026083600122027303754FF48F
:100A1C006021C1614360026103F03EFE68B910239E
:100A2C000193012302930023039301A9054803F0CA
:100A3C00ADFC20B905B05DF804FBFFF77BFFFFF7B9
:100A4C0079FF00BFB80100200024014000B595B02B
:100A5C00282200210DEB020004F05EFD002305931B
:100A6C0006930793089309930193029303930493BA
:100A7C0001220A924FF480330B930E9202221192B0
:100A8C0012934FF4E01313930AA800F05FFBD8B94C
:100A9C000F23059302210691002307934FF48062E4
:100AAC000892099305A800F091FD78B912230193DF
:100ABC004FF4004303930023049301A800F062FE5B
:100ACC0030B915B05DF804FBFFF734FFFFF732FFC8
:100ADC00FFF730FF10B582B000F0EAFAFFF7B6FF6F
:100AEC00FFF78CFDFFF728FFFFF740FFFFF782FFB2
:100AFC0001F00CFA254803F02FFD002301930AE0C6
:100B0C00202100F1804000F5843001F05FF84FF4B3
:100B1C007A7000F0F1FA1E4C01224021204601F0BF
:100B2C004FF801228021204601F04AF80122402191
:100B3C00184801F045F8FFF7EBFE144C4FF47A71AE
:100B4C00204603F05DFB204603F01CFCFFF7AEFBD8
:100B5C004FF06651FFF702FC0F49FFF7FFFB0190C6
:100B6C000E49FFF7F1FA0E49FFF7ACFC0D49FFF700
:100B7C00EDFA01904FF0FF3304220DEB02010A480D
:100B8C0001F057F90028BBD0C1E700BFB801002025
:100B9C0000080140000C0140333353403D0AB73F7D
:100BAC0004E78C3B0000C84130020020FEE7FEE762
:100BBC00FEE7FEE7FEE770477047704708B500F0A8
:100BCC0089FA08BD08B5012001F00AF808BD08B57E
:100BDC00022001F005F808BD08B5102001F000F85E
:100BEC0008BD000008B5024802F0E7F808BD00BFD8
:100BFC004807002008B54FF4005000F0F1FF08BD85
:100C0C0082B00E4B9A6942F001029A619A6902F025
:100C1C0001020092009ADA6942F08052DA61DB69D3
:100C2C0003F080530193019B054A536823F0E06362
:100C3C0043F00073536002B0704700BF00100240D5
:100C4C00000001400268094B9A4200D0704782B004
:100C5C0003F56C439A6942F400729A619B6903F440
:100C6C0000730193019B02B0704700BF0024014048
:100C7C000268094B9A4200D0704782B003F5644376
:100C8C009A6942F400629A619B6903F400630193D0
:100C9C00019B02B0704700BF002C014000B587B02B
:100CAC00002302930393049305930268114B9A4219
:100CBC0002D007B05DF804FB03F5E633DA6942F4C1
:100CCC000032DA61DA6902F400320092009A9A6911
:100CDC0042F004029A619B6903F004030193019BA7
:100CEC000C23029302230393059302A9024800F0FC
:100CFC0055FEDEE7004400400008014010B4036AD2
:100D0C00046A24F001040462846924F0F00C4CEAB7
:100D1C00021223F00A030B438261036210BC70477A
:100D2C0010B4046A24F0100404628469036A24F485
:100D3C00704C4CEA023223F0A00343EA01138261A7
:100D4C00036210BC7047836823F070030B4343F0BD
:100D5C00070383607047000003681B4A90420AD067
:100D6C00B0F1804F07D0A2F59432904203D002F537
:100D7C008062904203D123F070034A681343124AF5
:100D8C0090420AD0B0F1804F07D0A2F59432904235
:100D9C0003D002F58062904203D123F44073CA68F9
:100DAC00134323F080034A69134303608B68C362C7
:100DBC000B688362044B984202D001234361704755
:100DCC000B690363F9E700BF002C014040B310B579
:100DDC00044690F83D30F3B1022384F83D302146AF
:100DEC0051F8040BFFF7B8FF012384F8463084F860
:100DFC003E3084F83F3084F8403084F8413084F839
:100E0C00423084F8433084F8443084F8453084F818
:100E1C003D30002010BD80F83C30FFF729FFDBE7A8
:100E2C000120704710B4846824F47F4C42EA0322FA
:100E3C000A4342EA0C02826010BC704790F83C30C6
:100E4C00012B66D010B50446012380F83C300223F8
:100E5C0080F83D300268936823F47F4323F07703D6
:100E6C0093600B68602B40D022D8402B47D00BD915
:100E7C00502B0ED1CA6849680068FFF73FFF50211C
:100E8C002068FFF760FF04E0202B0CD008D9302B32
:100E9C0009D0012384F83D30002084F83C0010BDBB
:100EAC000BB1102BF5D119462068FFF74CFFF0E77A
:100EBC00702B0ED0B3F5005FEBD1CB684A68896814
:100ECC000068FFF7AFFF2268936843F48043936098
:100EDC00DFE7CB684A6889680068FFF7A3FF2268E0
:100EEC00936843F077039360D3E7CA684968006856
:100EFC00FFF716FF60212068FFF725FFC9E7CA68D6
:100F0C0049680068FFF7FAFE40212068FFF71BFFD5
:100F1C00BFE70220704710B50468A26822F0700287
:100F2C004B68134323F007030A681343A3604B6811
:100F3C00602B2CD00CD8402B14D0502B06D10A6926
:100F4C0089680068FFF7DAFE002028E0002026E020
:100F5C00702B23D10B698A68C9680068FFF762FFA0
:100F6C0000201CE00B68052B1AD003681C6A1A6A57
:100F7C0022F001021A620268936923F0F0030969F6
:100F8C0043EA0113936103681C62002007E00A69BD
:100F9C0089680068FFF7C4FE002000E0002010BD47
:100FAC000120FCE790F83C30012B22D010B5044610
:100FBC00012380F83C30022380F83D30FFF7ABFF73
:100FCC0080B92268D36823F04003D3602268D368C9
:100FDC0023F48043D360012384F83D30002384F84C
:100FEC003C3010BD012084F83D00002384F83C30D7
:100FFC00F7E702207047000090F83C30012B2CD012
:10100C0010B4012380F83C30022380F83D30036893
:10101C005A689C6822F0700C0A6842EA0C025A600A
:10102C0003680F4A93420AD0B3F1804F07D0A2F560
:10103C009432934203D002F58062934204D124F09F
:10104C0080044A6814439C60012380F83D300023DF
:10105C0080F83C30184610BC70470220704700BF27
:10106C00002C014010B504460E4B18784FF47A73DF
:10107C00B3FBF0F30C4A1068B0FBF3F000F016FE73
:10108C0068B90F2C01D901200AE0002221464FF04B
:10109C00FF3000F0C5FD054B1C60002000E0012076
:1010AC0010BD00BF1000002018000020140000200C
:1010BC0008B5074A136843F010031360032000F0CF
:1010CC009DFD0020FFF7CEFFFFF79AFD002008BD25
:1010DC0000200240034A1168034B1B780B44136039
:1010EC00704700BF8002002010000020014B1868E0
:1010FC00704700BF8002002038B50446FFF7F6FFAA
:10110C000546B4F1FF3F02D0044B1B781C44FFF79B
:10111C00EDFF401BA042FAD338BD00BF10000020E9
:10112C0082B0084B1B68084AA2FB03235B0A00FB36
:10113C0003F3019300BF019B5A1E0192002BF9D1BE
:10114C0002B0704718000020D34D6210002800F048
:10115C00F18170B582B00446036813F0010F2CD0F6
:10116C00994B5B6803F00C03042B1DD0964B5B680A
:10117C0003F00C03082B12D06368B3F5803F41D009
:10118C00002B55D103F1804303F504331A6822F484
:10119C0080321A601A6822F480221A6037E08A4B77
:1011AC005B6813F4803FE7D0874B1B6813F4003F58
:1011BC0003D06368002B00F0BF81236813F0020F8B
:1011CC0075D0814B5B6813F00C0F5FD07E4B5B6866
:1011DC0003F00C03082B54D02369002B00F08A80F9
:1011EC007A4B01221A60FFF781FF0546764B1B688C
:1011FC0013F0020F75D1FFF779FF401B0228F5D9C8
:10120C0003209EE1704A136843F4803313606368D3
:10121C0043B3FFF76BFF05466B4B1B6813F4003FA2
:10122C00CBD1FFF763FF401B6428F5D9032088E17D
:10123C00B3F5A02F09D0644B1A6822F480321A60DF
:10124C001A6822F480221A60E1E703F18043A3F5C7
:10125C003C331A6842F480221A601A6842F48032D5
:10126C001A60D4E7FFF742FF0546574B1B6813F48F
:10127C00003FA2D0FFF73AFF401B6428F5D90320AA
:10128C005FE1514B5B6813F4803FA5D14E4B1B685B
:10129C0013F0020F03D02369012B40F04F814A4A0F
:1012AC00136823F0F803616943EAC10313602368F0
:1012BC0013F0080F33D0A369002B5CD0434B0122F1
:1012CC00C3F88024FFF712FF05463F4B5B6A13F00F
:1012DC00020F21D1FFF70AFF401B0228F5D903208A
:1012EC002FE1394A136823F0F803616943EAC1031B
:1012FC001360DCE7354B00221A60FFF7F7FE05465A
:10130C00314B1B6813F0020FD1D0FFF7EFFE401BDF
:10131C000228F5D9032014E10120FFF701FF23680F
:10132C0013F0040F00F09680274BDB6913F0805FFD
:10133C0034D1254BDA6942F08052DA61DB6903F073
:10134C0080530193019B0125214B1B6813F4807F73
:10135C0026D0E368012B3DD0002B53D103F1804301
:10136C0003F504331A6A22F001021A621A6A22F097
:10137C0004021A6233E0154B0022C3F88024FFF7F5
:10138C00B5FE0546104B5B6A13F0020FC7D0FFF792
:10139C00ADFE401B0228F5D90320D2E00025D3E78F
:1013AC000B4A136843F480731360FFF79FFE0646E5
:1013BC00074B1B6813F4807FCBD1FFF797FE801B84
:1013CC006428F5D90320BCE0001002400000424222
:1013DC00007000405F4A136A43F001031362E36834
:1013EC0033B3FFF783FE06465A4B1B6A13F0020F0A
:1013FC002FD1FFF77BFE801B41F288339842F3D943
:10140C0003209EE0052B09D0524B1A6A22F00102F0
:10141C001A621A6A22F004021A62E0E74D4B1A6A49
:10142C0042F004021A621A6A42F001021A62D6E70A
:10143C00FFF75CFE0646474B1B6A13F0020F08D001
:10144C00FFF754FE801B41F288339842F3D90320F6
:10145C0077E0E5B9E369002B72D03E4A526802F09E
:10146C000C02082A56D0022B17D03B4B00221A66CE
:10147C00FFF73CFE0446374B1B6813F0007F47D048
:10148C00FFF734FE001B0228F5D9032059E0314A3E
:10149C00D36923F08053D361DCE72F4B00221A660B
:1014AC00FFF724FE05462B4B1B6813F0007F06D07C
:1014BC00FFF71CFE401B0228F5D9032041E0236AEC
:1014CC00B3F5803F1AD023494B6823F47413226A76
:1014DC00606A024313434B601F4B01221A66FFF7ED
:1014EC0005FE04461B4B1B6813F0007F0ED1FFF763
:1014FC00FDFD001B0228F5D9032022E0154A536894
:10150C0023F40033A1680B435360DCE7002018E0A0
:10151C00002016E0012B16D00E4B5B6803F48031D3
:10152C00226A914211D103F47013626A93420ED174
:10153C00002006E001207047012002E0012000E0BD
:10154C00002002B070BD0120FBE70120F9E701206B
:10155C00F7E700BF001002400000424286B0174B74
:10156C000FCB0DF1180C0CE90F0040F20123ADF874
:10157C000430134B5B6803F00C02082A02D01148AC
:10158C0006B07047C3F3834218326A4412F8100C49
:10159C0013F4803F0DD00A4B5B68C3F34043183300
:1015AC006B4413F8143C074A02FB00F0B0FBF3F059
:1015BC00E6E7054B03FB00F0E2E700BF4C550008E3
:1015CC000010024000127A0000093D00002800F0D3
:1015DC00A08070B50D460446524B1B6803F0070300
:1015EC008B420BD24F4A136823F007030B43136053
:1015FC00136803F007038B4240F08D80236813F0CF
:10160C00020F17D013F0040F04D0474A536843F469
:10161C00E0635360236813F0080F04D0424A536808
:10162C0043F460535360404A536823F0F003A168BD
:10163C000B435360236813F0010F31D06368012B07
:10164C0020D0022B25D0384A126812F0020F64D039
:10165C0035494A6822F0030213434B60FFF746FDFD
:10166C000646314B5B6803F00C036268B3EB820FE8
:10167C0016D0FFF73BFD801B41F288339842F0D91E
:10168C00032045E0284A126812F4003FE0D1012003
:10169C003EE0254A126812F0007FD9D1012037E0D4
:1016AC00204B1B6803F00703AB420AD91D4A136891
:1016BC0023F007032B431360136803F00703AB42BB
:1016CC002DD1236813F0040F06D0174A536823F466
:1016DC00E063E1680B435360236813F0080F07D0F5
:1016EC00114A536823F46053216943EAC1035360E0
:1016FC00FFF734FF0C4B5B68C3F303130B4AD35C4B
:10170C00D8400B4B18600B4B1868FFF7ABFC002054
:10171C0070BD012070470120FAE70120F8E7012095
:10172C00F6E700BF002002400010024060550008A0
:10173C001800002014000020014B1868704700BFEF
:10174C001800002008B5FFF7F7FF044B5B68C3F3E4
:10175C000223034AD35CD84008BD00BF00100240EE
:10176C007055000808B5FFF7E7FF044B5B68C3F33F
:10177C00C223034AD35CD84008BD00BF001002400E
:10178C007055000870B582B00446036813F0010F61
:10179C0036D03F4BDB6913F0805F49D13C4BDA69A3
:1017AC0042F08052DA61DB6903F080530193019BB4
:1017BC000125384B1B6813F4807F3BD0344B1B6ADC
:1017CC0013F4407313D0626802F440729A420ED044
:1017DC002F4A136A23F440702F490126C1F8406444
:1017EC000026C1F84064106213F0010F36D1284A6C
:1017FC00136A23F4407361680B431362002D3ED1CE
:10180C00236813F0020F06D0214A536823F4404397
:10181C00A1680B435360236813F0100F34D01C4A9B
:10182C00536823F48003E1680B43536000202CE0E1
:10183C000025BEE7174A136843F480731360FFF763
:10184C0055FC0646134B1B6813F4807FB6D1FFF78B
:10185C004DFC801B6428F5D9032016E0FFF746FCED
:10186C0006460B4B1B6A13F0020FC0D1FFF73EFC70
:10187C00801B41F288339842F3D9032005E0D369E9
:10188C0023F08053D361BBE7002002B070BD00BFD2
:10189C0000100240007000400000424200B587B0CA
:1018AC008446394B0FCB0DF1180E0EE90F0040F2A8
:1018BC000123ADF80430BCF1020F56D0BCF1100F6F
:1018CC0006D0BCF1010F2ED0002007B05DF804FB50
:1018DC002E4B5A68186810F08070F6D0C2F3834310
:1018EC0018336B4413F8100C12F4803F17D0274BAD
:1018FC005B68C3F3404318336B4413F8142C244B2C
:10190C00B3FBF2F303FB00F0204B5B6813F4800F86
:10191C00DBD140001F4BA3FB00304008D5E71E4B2A
:10192C0003FB00F0F0E7194B1B6A40F202321A403D
:10193C00B2F5817F24D003F44073B3F5007F04D05B
:10194C00B3F5407F09D00020BFE7104A526A12F06D
:10195C00020FF5D049F64040B7E70C4B186810F46D
:10196C000030B2D04FF22440AFE7FFF7FBFE074B3D
:10197C005B68C3F3813301335B00B0FBF3F0A4E786
:10198C004FF40040A1E700BF4C5500080010024086
:10199C0000127A00ABAAAAAA00093D0070B582B069
:1019AC000024A446A6E0804DAA4210D007D97F4D52
:1019BC00AA420CD005F58035AA4208D013E0A5F553
:1019CC008015AA4203D005F57025AA4207D18A6872
:1019DC00002A58D0012A51D04361082403E0A5F510
:1019EC008015AA42F3D0BEF1FF0F4ED80646BEF1C9
:1019FC00FF0F4CD84FEA8C0233680F25954023EA31
:101A0C00050304FA02F2134333604B6813F0805F52
:101A1C006ED0674B9A6942F001029A619B6903F0A0
:101A2C0001030193019B4FEA9C02951C614B53F8F7
:101A3C0025600CF003039D000F23AB4026EA030640
:101A4C005D4B984229D003F58063984200F08E805C
:101A5C0003F58063984200F08B8003F58063984215
:101A6C0019D004231AE0CC68BDE7CC680434BAE77B
:101A7C00CC680834B7E7CC680C34B4E703610824AD
:101A8C00B1E70024AFE70424ADE7061DAFE7ACF1E6
:101A9C0008029200B0E7032300E00023AB4033437D
:101AAC000232444D45F822304B6813F4803F61D02C
:101ABC00424A136843EA0E0313604B6813F4003F69
:101ACC005ED03E4A536843EA0E0353604B6813F4EE
:101ADC00801F5BD0394A936843EA0E0393604B68CE
:101AEC0013F4001F58D0354AD36843EA0E03D36071
:101AFC000CF1010C0A6832FA0CF353D0012303FAEF
:101B0C000CF302EA030E33EA0202F1D14A68122AFC
:101B1C003FF649AF122A3FF666AF01A555F822F001
:101B2C00DB190008731A00087D1A00088F1A0008C8
:101B3C00F3190008F3190008F3190008F319000849
:101B4C00F3190008F3190008F3190008F319000839
:101B5C00F3190008F3190008F3190008F319000829
:101B6C00F3190008771A0008831A0008012395E777
:101B7C00022393E7114A136823EA0E0313609CE7D0
:101B8C000E4A536823EA0E0353609FE70B4A93688F
:101B9C0023EA0E039360A2E7084AD36823EA0E03F4
:101BAC00D360A5E702B070BD000022100000311018
:101BBC0000100240000001400008014000040140F8
:101BCC000AB101617047090401617047C36801EAF9
:101BDC00030221EA030141EA02410161704700005E
:101BEC0008B5054B5B69034200D108BD024B586137
:101BFC00FEF70EFEF9E700BF00040140074AD36868
:101C0C0023F4E0631B041B0C000200F4E0600343AC
:101C1C0043F0BF6343F40033D360704700ED00E042
:101C2C0000B5194BDB68C3F30223C3F1070CBCF1FD
:101C3C00040F28BF4FF0040C03F1040EBEF1060F85
:101C4C0018D9033B4FF0FF3E0EFA0CFC21EA0C01B5
:101C5C0099400EFA03F322EA0303194300280BDB25
:101C6C000901C9B200F1604000F5614080F8001331
:101C7C005DF804FB0023E5E700F00F000901C9B291
:101C8C00024B1954F4E700BF00ED00E014ED00E046
:101C9C00002807DB00F01F02400901239340024A91
:101CAC0042F82030704700BF00E100E00138B0F18D
:101CBC00807F0BD24FF0E0235861054AF02182F867
:101CCC0023100020986107221A6170470120704789
:101CDC0000ED00E010B504460268136923F440538C
:101CEC00C1680B43136183680269134342691A4349
:101CFC000168CB6823F4B05323F00C031343CB607F
:101D0C000268536923F4407381690B435361026881
:101D1C00134B9A4220D0FFF715FD024602EB8202CC
:101D2C0002EB820263689B00B2FBF3F20D48A0FB4E
:101D3C0002314909642303FB11231B013233A0FB3D
:101D4C0003235B0903F0F00202EB011203F00F0313
:101D5C00216813448B6010BDFFF704FD0246DDE7DC
:101D6C00003801401F85EB512DE9F84305460F461D
:101D7C0016469946DDF820802C68246837EA04035F
:101D8C000CBF4FF0010C4FF0000CB4451FD1B8F153
:101D9C00FF3FF1D0B8F1000F05D0FFF7A7F9A0EB8A
:101DAC0009004045E8D92A68D36823F4D073D3607E
:101DBC002A68536923F001035361202385F83D30D1
:101DCC0085F83E30002385F83C30032000E00020ED
:101DDC00BDE8F88358B310B5044690F83D300BB30A
:101DEC00242384F83D302268D36823F40053D36055
:101DFC002046FFF76FFF2268136923F490431361A9
:101E0C002268536923F02A0353612268D36843F490
:101E1C000053D36000202064202384F83D3084F8E4
:101E2C003E3010BD80F83C30FEF738FFD8E701207B
:101E3C0070472DE9F04182B01E4690F83D30DBB280
:101E4C00202B54D104460D469046002953D0002A2D
:101E5C0053D090F83C30012B51D0012380F83C300A
:101E6C0000230364212380F83D30FFF73FF9074638
:101E7C00A4F82480A4F82680A368B3F5805F05D06D
:101E8C004FF00008002384F83C3012E0236913B1B2
:101E9C004FF00008F6E7A8460025F3E738F8023BB8
:101EAC002268C3F308035360E28C92B2013A92B2F7
:101EBC00E284E38C9BB273B100963B4600228021F6
:101ECC002046FFF751FFE0B9002DE7D015F8012BA4
:101EDC0023685A60E8E700963B46002240212046E2
:101EEC00FFF742FF78B9202384F83D3000E0022050
:101EFC0002B0BDE8F0810120FAE70120F8E70220EA
:101F0C00F6E70320F4E70320F2E7704708B5002258
:101F1C000F49104802F044FC70B90F490D4802F00B
:101F2C0056FC60B90D490B4803F07FFA50B90948CB
:101F3C0002F054FC48B908BDFEF7FCFCEDE7FEF7D7
:101F4C00F9FCEFE7FEF7F6FCF1E7FEF7F3FCF2E73E
:101F5C001C000020840200207C0000206C0000206B
:101F6C0012230B80004870473800002004230B809C
:101F7C00004870474C000020002393421ED200B54D
:101F8C0010E00CF1370C01F813C000014FEA430CC0
:101F9C000CF1010C4FF0000E01F80CE00133DBB238
:101FAC00934209D24FEA107CB0F1204FE9D20CF1E8
:101FBC00300C01F813C0E8E75DF804FB7047000033
:101FCC0038B50B4BD3F8E807D3F8EC47D3F8F03718
:101FDC00C01800D138BD074D0822A91CFFF7CCFF53
:101FEC00042205F112012046FFF7C6FFF2E700BFFD
:101FFC0000F0FF1F5000002008B51A230B80FFF7DC
:10200C00DFFF014808BD00BF5000002008B50A469C
:10201C0028B90549054803F038F8034808BD0249BA
:10202C00024803F032F8F8E748050020785500081C
:10203C0010B50A46034C2146034803F026F8204607
:10204C0010BD00BF480500209055000808B50A4691
:10205C0028B90549054803F018F8034808BD02499A
:10206C00024803F012F8F8E748050020A4550008D0
:10207C0008B50A4628B90549054803F006F803488F
:10208C0008BD0249024803F000F8F8E748050020B3
:10209C00B0550008022805D8DFE800F0050402005E
:1020AC00012070470220704702680E4B9A4200D004
:1020BC00704700B583B003F5DA33DA6942F40002F5
:1020CC00DA61DB6903F400030193019B00221146E2
:1020DC001420FFF7A5FD1420FFF7DAFD03B05DF81F
:1020EC0004FB00BF005C004008B500F52C71D0F873
:1020FC00E80202F08BFB08BD08B501EB810300EB95
:10210C00C303D3F87C21D0F8E80202F0ACFB08BD85
:10211C0008B501EB810300EBC303DA6BD0F8E802DE
:10212C0002F0E7FB08BD08B5D0F8E80202F088FC25
:10213C0008BD10B504468368022B09D10121D4F8DF
:10214C00E80202F066FCD4F8E80202F03AFC10BD9A
:10215C00FEF7F0FBF2E7000010B50446D0F8E802F9
:10216C0002F05AFCA36923B1024A136943F0060337
:10217C00136110BD00ED00E008B5D0F8E80202F0E4
:10218C0054FC08BD10B504461D48C0F8E842C4F81C
:10219C00C0021C4B036008234360022383600023AE
:1021AC008361C361036200F023F930BB1823002262
:1021BC001146D4F8C00201F028F8582300228021DF
:1021CC00D4F8C00201F021F8C02300228121D4F8F8
:1021DC00C00201F01AF84FF4887300220121D4F8E0
:1021EC00C00201F012F84FF4807300228221D4F85F
:1021FC00C00201F00AF8002010BDFEF79BFBD5E7EA
:10220C0048070020005C004008B5D0F8C00200F080
:10221C007BF9FFF73FFF08BD08B594461A466346A5
:10222C00D0F8C00200F0B3FEFFF734FF08BD08B5CC
:10223C00D0F8C00200F0EDFEFFF72CFF08BD08B58A
:10224C00D0F8C00200F06AFFFFF724FF08BD08B504
:10225C00D0F8C00200F09EFFFFF71CFF08BDD0F8BD
:10226C00C03211F0800F08D101F07F0101EB810128
:10227C0003EBC10191F86A01704701F07F01013154
:10228C0001EB810103EBC1018878704708B5D0F8E8
:10229C00C00200F07EFDFFF7FDFE08BD08B5D0F8CA
:1022AC00C00200F013FFFFF7F5FE08BD08B5D0F82B
:1022BC00C00200F0E0FEFFF7EDFE08BD08B5D0F857
:1022CC00C00200F0FAFE08BD00487047340A002036
:1022DC007047704738B512F4804F44D00468B4F896
:1022EC0050309BB291F800C003EBCC03023304EBEB
:1022FC004303B3F80044C4F309048B69A34228D305
:10230C001B1B8B618B697BB9056835F82C309BB234
:10231C0023F4804323F0700383F4005343F400430D
:10232C0043F0800325F82C3012F0400F0ED00268D9
:10233C000D7832F825309BB223F4E04323F0700380
:10234C0043F4004343F0C00322F8253024B920465F
:10235C0038BD00238B61D5E723460A89496900689B
:10236C0001F036FFF3E70468B4F850309BB291F8F3
:10237C0000C003EBCC03063304EB4303B3F8004477
:10238C00C4F309048B69A3422FD31B1B8B618B698C
:10239C007BB9056835F82C309BB223F4804323F0CD
:1023AC00700383F4005343F4004343F0800325F897
:1023BC002C3012F0400F0FD1026891F800C032F8A7
:1023CC002C309BB223F4E04323F0700343F400431E
:1023DC0043F0C00322F82C30002CB8D023464A8995
:1023EC004969006801F0F4FEB1E700238B61CEE788
:1023FC0070B586B0002800F08580044690F8A932AC
:10240C00EBB1032384F8A932206800F02AFF25469B
:10241C0055F8106BEC460FCDACE80F002B68CCF8E0
:10242C000030231D0ECB304600F00BFF054658B193
:10243C00022384F8A9320125284606B070BD80F825
:10244C00A832FFF731FEDCE70021206800F013FF13
:10245C002B461AE05A1C02EB820104EBC10101204D
:10246C00487002EB820104F8313003EB830104EB7A
:10247C00C101CB8602EB820C04EBCC0C00208CF857
:10248C0003008863C8630864D3B261688B42E1D3EC
:10249C0016E005EB850304EBC303002283F86921E6
:1024AC0083F8685183F86B21C3F87821C3F87C2139
:1024BC0005EB850304EBC303C3F880210135EDB2B2
:1024CC00A942E6D8254655F8106BEC460FCDACE882
:1024DC000F002B68CCF80030231D0ECB304600F0DB
:1024EC00CCFE054620B1022384F8A9320125A3E7CE
:1024FC00002384F82430012384F8A932206801F0E9
:10250C00F2F999E7012597E738B590F8A832012B35
:10251C0011D00446012580F8A852006800F098FEFE
:10252C0029462046FFF7D5FE206801F0DAF9002095
:10253C0084F8A80238BD0220FCE770B505460C46AD
:10254C00164612F0400F00F00D810268B2F85030C0
:10255C009BB2097803EBC103023302EB4303B3F8DC
:10256C000024C2F30902A369934252D99B1AA361B6
:10257C00A369002B6AD16378002B4DD12B68B3F87B
:10258C00502092B2134403EB0111B1F804349BB206
:10259C0023F4F8439BB2A1F80434B1F804346FEA85
:1025AC0043436FEA53439BB2A1F804342B6862781F
:1025BC00002A3ED1B3F8502092B21344227803EB98
:1025CC000213B3F80C2492B222F4F84292B2A3F89C
:1025DC000C24B3F80C246FEA42426FEA524292B2D6
:1025EC00A3F80C2421782846FFF792FD16F4804FAF
:1025FC0041D02A68217832F821309BB223F4E04391
:10260C0023F0700343F4404343F0800322F821305D
:10261C0031E00023A361ABE7012BC7D12B68B3F8E2
:10262C00502092B2134403EB01110023A1F804349F
:10263C00BCE7012AD6D1B3F8502092B213442278C9
:10264C0003EB02130022A3F80C24CBE716F4804F03
:10265C000DD0286830F821309BB223F4E04323F0EE
:10266C00700343F4404343F0800320F8213094F886
:10267C002430012B12D02A68217832F821309BB2F9
:10268C0023F4E04323F0400383F0300343F400438E
:10269C0043F0800322F82130002070BD636913449D
:1026AC006361E3691344E361216A236999421FD38F
:1026BC00C91A21626278002A3FD12A68B2F85010F8
:1026CC0089B20A44217802EB0112EBB9B2F8041476
:1026DC0089B221F4F84189B2A2F80414B2F80414B6
:1026EC006FEA41416FEA514189B2A2F8041426E025
:1026FC0021B9002384F824301346DBE7002384F847
:10270C00243023620B46D5E73E2B09D8590813F029
:10271C00010F00D00131890289B2A2F804140EE035
:10272C00590913F01F0F00D101396FEAC1616FEA2B
:10273C00514189B2A2F8041401E0012A06D09BB2DF
:10274C0022896169286801F0D6F894E72A68B2F802
:10275C00501089B20A44217802EB011299B2A2F806
:10276C000414ECE70268B2F850309BB2097803EB22
:10277C00C103063302EB4303B3F80024C2F309028E
:10278C00A369934253D39B1AA361A369002B6BD10A
:10279C006378002B4ED12B68B3F8502092B21344BF
:1027AC0003EB0111B1F804349BB223F4F8439BB250
:1027BC00A1F80434B1F804346FEA43436FEA53438D
:1027CC009BB2A1F804342B686278002A3FD1B3F88D
:1027DC00502092B21344227803EB0213B3F80C246A
:1027EC0092B222F4F84292B2A3F80C24B3F80C245F
:1027FC006FEA42426FEA524292B2A3F80C2421785B
:10280C002846FFF785FC16F4804F7FF434AF2A6816
:10281C00217832F821309BB223F4E04323F070038B
:10282C0043F4404343F0800322F8213023E7002394
:10283C00A361AAE7012BC6D12B68B3F8502092B242
:10284C00134403EB01110023A1F80434BBE7012A64
:10285C00D5D1B3F8502092B21344227803EB021373
:10286C000022A3F80C24CAE716F4804F0DD1286877
:10287C0030F821309BB223F4E04323F0700343F48F
:10288C00404343F0800320F8213094F82430012B8E
:10289C007FF4F1AE636913446361E3691344E3614C
:1028AC00216A236999421FD3C91A21622A68617867
:1028BC0000293ED1B2F8501089B20A44217802EBBB
:1028CC000112EBB9B2F80C1489B221F4F84189B2B7
:1028DC00A2F80C14B2F80C146FEA41416FEA5141A2
:1028EC0089B2A2F80C1426E021B9002384F8243014
:1028FC001346DBE70023236284F824300B46D5E72C
:10290C003E2B09D8590813F0010F00D00131890270
:10291C0089B2A2F80C140EE0590913F01F0F00D164
:10292C0001396FEAC1616FEA514189B2A2F80C1406
:10293C0001E0012906D09BB262896169286800F028
:10294C00DAFF98E6B2F8501089B20A44217802EB0B
:10295C00011299B2A2F80C14EDE72DE9F0410546ED
:10296C002868B0F8443013F4004F00F00F82B0F830
:10297C004440A3B214F00F0440F0D88013F0100FB1
:10298C0061D003889AB213F4006F40F0938012F474
:10299C00004FE5D0038823F070031B051B0D43F09B
:1029AC00800303802868B0F850309BB295F86821FA
:1029BC0003EBC203063300EB4303B3F80034C3F359
:1029CC000903C5F884318BB1D5F87C1171B1B5F818
:1029DC006E2101F0FDFBD5F88421D5F87C31134430
:1029EC00C5F87C3100212846FFF786FB2B681A8836
:1029FC0012F4006FB4D1B3F8502092B21344D5F84E
:102A0C007821002A79D1B3F80C2492B222F4F8423E
:102A1C0092B2A3F80C24B3F80C246FEA42426FEA8A
:102A2C00524292B2A3F80C242A6813889BB223F466
:102A3C00804323F0700383F4405343F4004343F08A
:102A4C00800313808CE703889BB223F4E14323F0CB
:102A5C0070036FEA43436FEA53439BB203802A68C7
:102A6C00B2F850309BB295F8281003EBC103023337
:102A7C0002EB4303B3F80034C3F309036B64EA6B52
:102A8C001344EB6300212846FFF742FB95F82430F2
:102A9C00002B3FF465AF2B6C002B7FF461AF95F8E6
:102AAC0024302A6843F08003A2F84C30002385F8C8
:102ABC00243055E7B0F850309BB295F8682103EB01
:102ACC00C203063300EB4303B3F80034C3F309032A
:102ADC00C5F88431B5F86E2105F52C7101F078FB41
:102AEC002A68138823F070031B051B0D43F0800329
:102AFC0013802846FFF7F8FA32E73E2A09D8510826
:102B0C0012F0010F00D001318A0292B2A3F80C240A
:102B1C008AE7510912F01F0F00D101396FEAC16227
:102B2C006FEA524292B2A3F80C247DE730F82430BD
:102B3C009EB213F4004F4FD116F0800F3FF410AF3C
:102B4C00621C02EB820105EBC101286830F82430CD
:102B5C009BB223F4E14323F070036FEA43436FEA23
:102B6C0053439BB220F82430CB78032B07D033B1DE
:102B7C00022B40F0068116F4807F40F00281286819
:102B8C00B0F850309BB2621C02EB820215F8326036
:102B9C0003EBC603023300EB4303B3F80034C3F377
:102BAC00090304EB840205EBC202126C9A4240F258
:102BBC00D48004EB840705EBC707D21A3A6404EB04
:102BCC00840205EBC202126C002A40F0CD80314623
:102BDC002846FFF79DFAC3E630F8243023F0700343
:102BEC001B051B0D43F0800320F8243004EB8401FB
:102BFC00C90001F5B47105EB010804EB840305EB86
:102C0C00C30393F87431002B42D12868B0F85030CC
:102C1C009BB204EB840205EBC20292F8682103EB31
:102C2C00C203063300EB4303B3F80074C7F3090780
:102C3C0017BB04EB840305EBC303D3F884213A449C
:102C4C00C3F88421D3F87C213A44C3F87C21D3F80F
:102C5C0080313BB104EB840305EBC303D3F878312B
:102C6C009F4275D204EB840305EBC30393F8681100
:102C7C002846FFF741FA5FE704EB840105EBC1013D
:102C8C003B46B1F86E21D1F87C1101F0A1FAD0E7E6
:102C9C0004EB840305EBC30393F86B31022B35D0A3
:102CAC00296804EB840205EBC20292F8680131F842
:102CBC0020309BB223F4E04323F0700343F4004331
:102CCC0043F0C00321F82030286892F8682130F8CE
:102CDC00223013F4804F20D0B0F850309BB203EB6D
:102CEC00C203023300EB4303B3F80074C7F30907C4
:102CFC00002F9ED004EB840105EBC1013B46B1F8DB
:102D0C007021D1F87C1101F063FA92E7324641460A
:102D1C002846FFF7DFFA07468BE7B0F850309BB236
:102D2C0003EBC203063300EB4303B3F80074C7F3A1
:102D3C000907002F3FF47DAF04EB840105EBC101C3
:102D4C003B46B1F87221D1F87C1101F041FA70E7E1
:102D5C004146286800F0E3FDEEE604EB840205EB47
:102D6C00C202002717642AE704EB840205EBC202B7
:102D7C00D66B1E44D663546C2344536400F0CFFDD1
:102D8C00EEE532462846FFF7D8FBE9E50020BDE822
:102D9C00F08190F8A832012B0DD010B50446012318
:102DAC0080F8A83280F82410006800F094FD002010
:102DBC0084F8A80210BD0220704710B584B00446F8
:102DCC00006800F092FD10F4004F47D1206800F02D
:102DDC008CFD10F4806F45D1206800F086FD10F456
:102DEC00804F08D02268B2F844309BB223F4804361
:102DFC009BB2A2F84430206800F077FD10F4005F1D
:102E0C0008D02268B2F844309BB223F400539BB232
:102E1C00A2F84430206800F068FD10F4805F32D1D5
:102E2C00206800F062FD10F4006F78D1206800F08B
:102E3C005CFD10F4007F40F09D80206800F055FD93
:102E4C0010F4807F08D02268B2F844309BB223F48F
:102E5C0080739BB2A2F8443004B010BD2046FFF73B
:102E6C007CFDB3E72268B2F844309BB223F4806354
:102E7C009BB2A2F844302046FFF75BF900212046B4
:102E8C00FFF787FFA8E72268B2F840309BB223F027
:102E9C0004039BB2A2F840302268B2F840309BB2D7
:102EAC0023F008039BB2A2F840302046FFF764F9E8
:102EBC002268B2F844309BB223F480539BB2A2F840
:102ECC004430ADE7226832F8231004AA02EB430227
:102EDC0022F8101C0133DBB2072BF3D92268B2F8AD
:102EEC0040309BB243F00103A2F840302268B2F8A4
:102EFC0040309BB223F001039BB2A2F84030236810
:102F0C00B3F8442012F4806FF9D0B3F8442092B295
:102F1C0022F4806292B2A3F8442000230BE0002339
:102F2C00DAE7226804A901EB430131F8101C22F8FE
:102F3C0023100133DBB2072BF3D92268B2F84030EF
:102F4C009BB243F00803A2F840302268B2F8443038
:102F5C009BB223F400639BB2A2F844302268B2F80F
:102F6C0040309BB243F00403A2F840302046FFF7F8
:102F7C00F3F85BE72268B2F844309BB223F4007399
:102F8C009BB2A2F844302046FFF7CDF855E710B5B8
:102F9C0004468C4611F0800F2AD101F0070000EB9B
:102FAC008001C90001F5B47E04EB0E0100EB80003A
:102FBC0004EBC0004FF0000E80F869E10CF0070C38
:102FCC0081F800C00A61CB704A780AB1A1F80EC032
:102FDC00022B19D094F8A832012B18D0012384F8B5
:102FEC00A832206800F05AF9002084F8A80210BD1D
:102FFC0001F00700013000EB800104EBC1014FF040
:10300C00010E81F801E0D9E700230B71E2E7022001
:10301C00EDE710B504460B4611F0800F1FD101F0FF
:10302C00070202EB8201C90001F5B471014402EB05
:10303C00820200EBC202002082F8690103F0070350
:10304C000B7094F8A832012B13D0012384F8A8320A
:10305C00206800F0DFFA002084F8A80210BD01F00F
:10306C000702013202EB820100EBC1010120487022
:10307C00E4E70220F2E710B501F0070404EB840149
:10308C00C90001F5B471014404EB840C00EBCC0CC9
:10309C00CCF87C21CCF880310023CCF884318CF82E
:1030AC0069318CF8684124B9006800F038FC0020C4
:1030BC0010BD006800F033FCF9E701F0070101EBEB
:1030CC00810100EBC101D1F88401704710B501F00A
:1030DC00070404F1010C0CEB8C0100EBC10104EBB7
:1030EC00840E00EBCE0ECEF83C20CEF84030012200
:1030FC008EF84C20CEF848300023CEF844304A707D
:10310C000CEB8C0C00F83C4024B9006800F007FC78
:10311C00002010BD006800F002FCF9E738B501F0A2
:10312C0007054268954231D804460B4611F0800FD2
:10313C001ED101EB8101C90001F5B471014403EB0F
:10314C00830300EBC303002283F8692101238B70F6
:10315C000D7094F8A832012B1AD0012384F8A832F0
:10316C00206800F042FB5DB1002084F8A80238BD55
:10317C006B1C03EB830100EBC10101224A70E5E7F4
:10318C0004F52C71206800F0B4FBEDE70120EEE7AC
:10319C000220ECE70B4601F00F014268914230D857
:1031AC0010B5044613F0800F21D103F0070202EB97
:1031BC008201C90001F5B471014402EB820200EBFB
:1031CC00C202002082F8690100228A7003F0070312
:1031DC000B7094F8A832012B15D0012384F8A83277
:1031EC00206800F027FB002084F8A80210BD03F033
:1031FC000702013202EB820100EBC1010120487091
:10320C00E2E7012070470220F0E711F0800F0BD0AD
:10321C0001F00701013101EB810100EBC10152B951
:10322C000A73CB800020704701EB8101C90001F5C6
:10323C00B4710144F3E701220A730B811B0C4B811F
:10324C00F0E784B001A880E80E00002004B07047BD
:10325C0003460020A3F844004FF43F42A3F840205B
:10326C007047B0F8403023F47C535B045B0CA0F83F
:10327C004030002070470020704784B0844601A87D
:10328C0080E80E000123ACF840300020ACF8400080
:10329C00ACF84400ACF8500004B0704710B50346CD
:1032AC0091F800C030F82C2092B222F4EC4222F0BB
:1032BC00700292B2C878032861D8DFE800F0555C40
:1032CC000258002048F2800E42EA0E0223F82C200D
:1032DC0091F800C033F82C2092B222F4E04222F094
:1032EC0070024CEA020242EA0E0223F82C200A7BFE
:1032FC00002A40F0C4804A78002A51D0B3F85020FC
:10330C0092B21A440C7802EB0412B1F806C04FEAE0
:10331C005C0C4FEA4C0CA2F800C40C7833F8242057
:10332C0012F0400F0CD033F8242092B222F4E04279
:10333C0022F0700242F4004242F0C00223F8242032
:10334C00CA78012A1DD0097833F8212092B222F4D0
:10335C00E04222F0400282F0200242F4004242F0AD
:10336C00800223F821206AE042F40072AAE742F4BA
:10337C00C0620020A6E742F480620020A2E7012090
:10338C00A0E7097833F8212092B222F4E04222F02F
:10339C00400242F4004242F0800223F821204EE029
:1033AC00B3F8502092B21A440C7802EB0412B1F824
:1033BC0006C04FEA5C0C4FEA4C0CA2F808C4B3F8F8
:1033CC00502092B21A440C7802EB04120C69BCBB6C
:1033DC00B2F80CC41FFA8CFC2CF4F84C1FFA8CFCC1
:1033EC00A2F80CC4B2F80CC46FEA4C4C6FEA5C4CFB
:1033FC001FFA8CFCA2F80CC40C7833F8242012F4BD
:10340C00804F0CD033F8242092B222F4E04222F008
:10341C00700242F4404242F0800223F824200978E2
:10342C0033F8212092B222F4804222F0700282F40E
:10343C00405242F4004242F0800223F8212010BD99
:10344C003E2C0DD84FEA540C14F0010F01D00CF1A6
:10345C00010C4FEA8C2C1FFA8CFCA2F80CC4CBE7A5
:10346C004FEA541C14F01F0F01D10CF1FF3C6FEA12
:10347C00CC646FEA5444A4B2A2F80C44BCE791F8B3
:10348C0000C033F82C2092B222F4E04222F07002F9
:10349C0042F4014242F0800223F82C20B3F8502071
:1034AC0092B21A4491F800C002EB0C12B1F808C0A9
:1034BC004FEA5C0C4FEA4C0CA2F800C4B3F8502055
:1034CC0092B21A4491F800C002EB0C12B1F80AC087
:1034DC004FEA5C0C4FEA4C0CA2F808C44A78002A5C
:1034EC0041D10C7833F8242012F4804F0CD033F8EF
:1034FC00242092B222F4E04222F0700242F44042C4
:10350C0042F0800223F824200C7833F8242012F0A7
:10351C00400F0CD033F8242092B222F4E04222F077
:10352C00700242F4004242F0C00223F8242091F8C9
:10353C0000C033F82C2092B222F4804222F07002A8
:10354C0082F4405248F28004224323F82C2009785C
:10355C0033F8212092B222F4E04222F040022243BE
:10356C0023F821206BE70C7833F8242012F4804FD9
:10357C000CD033F8242092B222F4E04222F07002F4
:10358C0042F4404242F0800223F824200C7833F8B5
:10359C00242012F0400F0CD033F8242092B222F4E5
:1035AC00E04222F0700242F4004242F0C00223F8E2
:1035BC002420CA78012A1ED00C7833F8242092B229
:1035CC0022F4E04222F0400282F0200242F4004257
:1035DC0042F0800223F82420097833F8212092B29B
:1035EC0022F4804222F0700242F4004242F0800247
:1035FC0023F8212023E70C7833F8242092B222F40C
:10360C00E04222F0400242F4004242F0800223F8F1
:10361C002420E1E70B7B002B46D14B7813B30A78BF
:10362C0030F8223013F0400F0CD030F822309BB21F
:10363C0023F4E04323F0700343F4004343F0C0034E
:10364C0020F822300A7830F822309BB223F4E04381
:10365C0023F0400343F4004343F0800320F822306E
:10366C00002070470A7830F8223013F4804F0CD0C9
:10367C0030F822309BB223F4E04323F0700343F480
:10368C00404343F0800320F822300A7830F822308F
:10369C009BB223F4804323F0700343F4004343F0C4
:1036AC00800320F82230DBE74B78002B4ED10A78D0
:1036BC0030F8223013F4804F0CD030F822309BB20B
:1036CC0023F4E04323F0700343F4404343F08003BE
:1036DC0020F822300A7830F8223013F0400F0CD04A
:1036EC0030F822309BB223F4E04323F0700343F410
:1036FC00004343F0C00320F822300A7830F822301F
:10370C009BB223F4E04323F0700343F4004343F0F3
:10371C00C00320F822300B7830F8232092B222F428
:10372C00804222F0700248F2800C42EA0C0220F82F
:10373C0023200A7830F822309BB223F4E04323F0A4
:10374C00400343EA0C0320F8223089E70A7830F86A
:10375C00223013F4804F0CD030F822309BB223F47B
:10376C00E04323F0700343F4404343F0800320F81C
:10377C0022300A7830F8223013F0400F0CD030F899
:10378C0022309BB223F4E04323F0700343F4004354
:10379C0043F0C00320F822300A7830F822309BB274
:1037AC0023F4E04323F0700343F4404343F08003DD
:1037BC0020F822300B7830F8232092B222F4E04229
:1037CC0022F0400248F2800C42EA0C0220F823203E
:1037DC000A7830F822309BB223F4804323F0700334
:1037EC0043EA0C0320F822303AE74B788BB10A7885
:1037FC0030F822309BB223F4E04323F0400383F0F3
:10380C00100343F4004343F0800320F822300020DF
:10381C0070470A7830F822309BB223F4804323F0AF
:10382C00700383F4805343F4004343F0800320F887
:10383C002230ECE70B7B002B4BD14B7833B30A785F
:10384C0030F8223013F0400F0CD030F822309BB2FD
:10385C0023F4E04323F0700343F4004343F0C0032C
:10386C0020F82230CB78012B33D00A7830F8223074
:10387C009BB223F4E04323F0400383F0200343F492
:10388C00004343F0800320F8223022E00A7830F81D
:10389C00223013F4804F0CD030F822309BB223F43A
:1038AC00E04323F0700343F4404343F0800320F8DB
:1038BC0022300A7830F822309BB223F4804323F074
:1038CC00700383F4405343F4004343F0800320F827
:1038DC0022300020704711B98023A0F84C30002012
:1038EC0070470020704700207047B0F8440080B249
:1038FC0070470020704710B45C1C640800EB420257
:10390C0002F5806207E00B78487843EA002322F83E
:10391C00043B0231013C002CF5D110BC704770B552
:10392C0005460C464B78012B37D00A7B002A40F019
:10393C0026838B690A69934240F204839B1A8B613C
:10394C00B5F850309BB22B44217803EB0113002ABD
:10395C0040F0FC82B3F80C2492B222F4F84292B2FA
:10396C00A3F80C24B3F80C246FEA42426FEA5242DB
:10397C0092B2A3F80C24227835F822309BB223F4AF
:10398C00804323F0700383F4405343F4004343F02B
:10399C00800325F82230002070BD8E690A6996429A
:1039AC0000D91646237B002B39D0E378022B58D054
:1039BC00227835F822309BB223F4E04323F07003D5
:1039CC0043F4014343F0800325F82230236A9B1B08
:1039DC002362237835F8232012F0400F00F0268262
:1039EC006278002A40F0CA81B5F8502092B22A447D
:1039FC0002EB0313002E40F0A881B3F80C2492B212
:103A0C0022F4F84292B2A3F80C24B3F80C246FEA17
:103A1C0042426FEA524292B2A3F80C24B0E1B6B221
:103A2C003346E28861692846FFF765FFB5F85030E8
:103A3C009BB22B44227803EB0213A3F80464227884
:103A4C0035F822309BB223F4E04323F0400383F09B
:103A5C00300343F4004343F0800325F82230002068
:103A6C009AE7236A9A4280F05281227835F8223004
:103A7C009BB223F4E04323F0700343F4014343F07F
:103A8C00800325F82230236A9B1B2362237835F8A8
:103A9C00232012F0400F00F09D8062788ABBB5F8AD
:103AAC00502092B22A4402EB03138EB9B3F80C24C3
:103ABC0092B222F4F84292B2A3F80C24B3F80C247C
:103ACC006FEA42426FEA524292B2A3F80C241AE017
:103ADC003E2E09D8720816F0010F00D00132920266
:103AEC0092B2A3F80C240EE0720916F01F0F00D14D
:103AFC00013A6FEAC2626FEA524292B2A3F80C2406
:103B0C0001E0012A2BD0B3B2628961692846FFF724
:103B1C00F2FE636933446361236A2269934228D9B4
:103B2C009B1B23626378002B40D1B5F850309BB2BD
:103B3C002B44227803EB0213FEB9B3F8042492B29F
:103B4C0022F4F84292B2A3F80424B3F804246FEAE6
:103B5C0042426FEA524292B2A3F8042428E0B5F82C
:103B6C00502092B22A4402EB0313B2B2A3F80C24F5
:103B7C00C9E7002222621E46D4E73E2E09D87208FD
:103B8C0016F0010F00D00132920292B2A3F8042475
:103B9C000EE0720916F01F0F00D1013A6FEAC262F3
:103BAC006FEA524292B2A3F8042401E0012B06D032
:103BBC00B3B2228961692846FFF79DFE3FE7B5F84D
:103BCC0050309BB22B44227803EB0213B2B2A3F811
:103BDC000424EDE762788ABBB5F8502092B22A44EF
:103BEC0002EB03138EB9B3F8042492B222F4F84218
:103BFC0092B2A3F80424B3F804246FEA42426FEAA9
:103C0C00524292B2A3F804241AE03E2E09D872084C
:103C1C0016F0010F00D00132920292B2A3F80424E4
:103C2C000EE0720916F01F0F00D1013A6FEAC26262
:103C3C006FEA524292B2A3F8042401E0012A2BD07D
:103C4C00B3B2228961692846FFF755FE6369334494
:103C5C006361236A2269934228D99B1B2362637890
:103C6C00002B40D1B5F850309BB22B44227803EB9B
:103C7C000213FEB9B3F80C2492B222F4F84292B2B9
:103C8C00A3F80C24B3F80C246FEA42426FEA5242B8
:103C9C0092B2A3F80C2428E0B5F8502092B22A4432
:103CAC0002EB0313B2B2A3F80424C9E70022226288
:103CBC001E46D4E73E2E09D8720816F0010F00D02C
:103CCC000132920292B2A3F80C240EE0720916F0A3
:103CDC001F0F00D1013A6FEAC2626FEA524292B2F0
:103CEC00A3F80C2401E0012B06D0B3B26289616900
:103CFC002846FFF700FEA2E6B5F850309BB22B44E5
:103D0C00227803EB0213B2B2A3F80C24EDE721786E
:103D1C0035F8212092B222F4E24222F0700242F4F1
:103D2C00004242F0800225F82120B5F8502092B2D2
:103D3C002A44217802EB01129BB2A2F804342289A6
:103D4C0061692846FFF7D7FD79E63E2E09D872083F
:103D5C0016F0010F00D00132920292B2A3F80C249B
:103D6C000EE0720916F01F0F00D1013A6FEAC26221
:103D7C006FEA524292B2A3F80C2401E0012A26D039
:103D8C00B3B2628961692846FFF7B5FD63693344B4
:103D9C006361236A2269934223D99B1B2362002E01
:103DAC003FF44DAE63786BBBB5F850309BB22B44EF
:103DBC00227803EB02133E2E17D8720816F0010F6F
:103DCC0000D00132920292B2A3F804241CE0B5F8A0
:103DDC00502092B22A4402EB0313B2B2A3F80C2483
:103DEC00CEE7002222621E46D9E7720916F01F0F99
:103DFC0000D1013A6FEAC2626FEA524292B2A3F862
:103E0C00042401E0012B06D0B3B222896169284653
:103E1C00FFF771FD13E6B5F850309BB22B442278B6
:103E2C0003EB0213B2B2A3F80424EDE762788ABB69
:103E3C00B5F8502092B22A4402EB03138EB9B3F8B2
:103E4C00042492B222F4F84292B2A3F80424B3F8F8
:103E5C0004246FEA42426FEA524292B2A3F804245D
:103E6C001AE03E2E09D8720816F0010F00D001326C
:103E7C00920292B2A3F804240EE0720916F01F0FFE
:103E8C0000D1013A6FEAC2626FEA524292B2A3F8D1
:103E9C00042401E0012A26D0B3B2228961692846A4
:103EAC00FFF729FD636933446361236A22699342F6
:103EBC0023D99B1B2362002E3FF4C1AD63786BBBEF
:103ECC00B5F850309BB22B44227803EB02133E2EF4
:103EDC0017D8720816F0010F00D00132920292B27C
:103EEC00A3F80C241CE0B5F8502092B22A4402EB43
:103EFC000313B2B2A3F80424CEE7002222621E46BA
:103F0C00D9E7720916F01F0F00D1013A6FEAC262AD
:103F1C006FEA524292B2A3F80C2401E0012B06D0B6
:103F2C00B3B2628961692846FFF7E5FC87E5B5F80D
:103F3C0050309BB22B44227803EB0213B2B2A3F89D
:103F4C000C24EDE700228A611A46F9E43E2A09D8CE
:103F5C00510812F0010F00D00131890289B2A3F887
:103F6C000C1408E5510912F01F0F00D101396FEA4A
:103F7C00C1616FEA514189B2A3F80C14FBE4CA7811
:103F8C00022A45D0012A40F0208189692269914298
:103F9C0040F2D480891AA161D3B9B5F850309BB2E4
:103FAC002B44217803EB0113002A40F0CB80B3F8AB
:103FBC00041489B221F4F84189B2A3F80414B3F8BB
:103FCC0004146FEA41416FEA514189B2A3F8041419
:103FDC006378002B40F0EA80B5F850309BB22B444C
:103FEC00217803EB0113002A40F0C580B3F80C24B0
:103FFC0092B222F4F84292B2A3F80C24B3F80C2437
:10400C006FEA42426FEA524292B2A3F80C24B2E435
:10401C00CBB9B0F850309BB203440A7803EB0213CF
:10402C000A6972BBB3F8042492B222F4F84292B239
:10403C00A3F80424B3F804246FEA42426FEA524214
:10404C0092B2A3F804246378002B4CD1B5F850300D
:10405C009BB22B44227803EB0213226952BBB3F8B8
:10406C000C2492B222F4F84292B2A3F80C24B3F8C6
:10407C000C246FEA42426FEA524292B2A3F80C242B
:10408C0033E03E2A09D8510812F0010F00D001315B
:10409C008A0292B2A3F80424D5E7510912F01F0F3B
:1040AC0000D101396FEAC1626FEA524292B2A3F8B1
:1040BC000424C8E73E2A09D8510812F0010F00D099
:1040CC0001318A0292B2A3F80C240EE0510912F0CD
:1040DC001F0F00D101396FEAC1626FEA524292B2EE
:1040EC00A3F80C2401E0012B1DD0E369002B3FF455
:1040FC0042AC227835F8221044F2400303EA010066
:10410C008B4302D000287FF436AC35F822309BB2BA
:10411C0023F4E04323F0700343F4004343F0C00363
:10412C0025F8223027E4B5F850309BB22B44227886
:10413C0003EB0213228AA3F80C24D6E70022A26117
:10414C000A4629E73E2A09D8510812F0010F00D07F
:10415C000131890289B2A3F8041439E7510912F02C
:10416C001F0F00D101396FEAC1616FEA514189B269
:10417C00A3F804142CE73E2A0AD8510812F0010FB8
:10418C0000D001318A0292B2A3F80C24FFF7F3BBE2
:10419C00510912F01F0F00D101396FEAC1626FEAA9
:1041AC00524292B2A3F80C24FFF7E5BB012B7FF42B
:1041BC00E2ABB5F850309BB22B44217803EB0113E2
:1041CC0092B2A3F80C24FFF7D6BB0120FFF7E4BB97
:1041DC0010B45C0800EB420000F5806007E030F89A
:1041EC00042B0A70C2F307224A700231013C002CE6
:1041FC00F5D113F0010F01D003880B7010BC704780
:10420C00F0B583B005460C4600230193FCF76EFF16
:10421C002B689A6812F4807F23D107465A6812F4EF
:10422C00807F03D1DB6A13F4700F29D0504B1E68CA
:10423C000220FDF733FBB6FBF0F62B6819694D4AEB
:10424C00114236D1D96802F15C42114231D119695F
:10425C00494A114240D1DA68484B1A423ED02920D3
:10426C0041E0AB6A43F02003AB62002385F82430B5
:10427C00012003B0F0BD2B681B6813F0020F0FD0A8
:10428C002B681B6813F0020F4FD1B4F1FF3FF7D02E
:10429C00002CF0D0FCF72AFFC31BA342F0D9EAE7AD
:1042AC00AB6A43F00403AB62002385F8243003208F
:1042BC00DFE71969304A114204D1D96802F16E4224
:1042CC0011420DD019692E4A0A405AB9DA682C4BA2
:1042DC0013405BB1FC2006E0292004E0142002E02E
:1042EC00542000E0FC2000FB06F607E05420FAE71F
:1042FC00019BB34210D3019B01330193019BB34249
:10430C0013D2B4F1FF3FF6D0002CF1D0FCF7EEFE47
:10431C00C01BA042EFD9EBE7AB6A43F00403AB62DE
:10432C00002385F824300320A3E72B686FF01202DA
:10433C001A60AB6A43F40073AB622B689B6803F49E
:10434C006023B3F5602F01D0002092E7287B60B981
:10435C00AB6A23F48073AB62AB6A13F4805F88D1D1
:10436C00AB6A43F00103AB6283E7002081E700BF37
:10437C0018000020244992249224491292244900C6
:10438C00499224000368D86C7047000030B482B0A6
:10439C000022019290F82420012A00F0918003461B
:1043AC00012280F824204A68062A2DD80468606B04
:1043BC0002EB8202053A4FF01F0C0CFA02FC20EAC9
:1043CC000C000D6805FA02F2024362630A68092ABE
:1043DC003AD91C68E06802EB42021E3A4FF0070C17
:1043EC000CFA02FC20EA0C008D6805FA02F202437A
:1043FC00E2600A68103A012A36D90020002283F8BC
:10440C00242002B030BC70470C2A0ED80568286BEB
:10441C0002EB8202233A1F24944020EA04000C6829
:10442C0004FA02F202432A63D0E70568E86A02EB59
:10443C008202413A1F24944020EA04000C6804FADA
:10444C0002F20243EA62C1E71C68206902EB4202F5
:10445C004FF0070C0CFA02FC20EA0C008D6805FAF0
:10446C0002F202432261C4E71A681648824205D060
:10447C009A6A42F020029A620120BFE7906810F419
:10448C00000F1BD1906840F4000090600A68102A5D
:10449C0001D00020B2E70C4A12680C49A1FB0212B1
:1044AC00920C02EB82025200019202E0019A013A54
:1044BC000192019A002AF9D100209FE700209DE784
:1044CC0002209EE7002401401800002083DE1B43DD
:1044DC0030B583B00023019303689A6812F0010F82
:1044EC0033D104469A6842F001029A60184B1B685B
:1044FC00184AA2FB03239B0C019302E0019B013B96
:10450C000193019B002BF9D1FCF7F0FD05462368C4
:10451C009B6813F0010F16D1FCF7E8FD431B022B2F
:10452C00F5D923689B6813F0010FF0D1A36A43F00F
:10453C001003A362E36A43F00103E362002384F8EF
:10454C002430012002E0002000E0002003B030BD48
:10455C001800002083DE1B4390F82430012B68D018
:10456C0010B50446012380F82430FFF7B1FF002872
:10457C005BD1A36A23F4407323F0010343F48073EB
:10458C00A36223682C4A934227D0A26A22F4801299
:10459C00A2625A6812F4806F05D0A26A22F44052CB
:1045AC0042F48052A262A26A12F4805F2BD0E26ABB
:1045BC0022F00602E262002284F824206FF002024C
:1045CC001A6023689A6802F46022B2F5602F1DD03D
:1045DC009A6842F480129A602AE0A2F580625268CE
:1045EC0012F4702FD1D0A26A42F48012A262134A44
:1045FC00526812F4806FD6D0A26A22F4405242F470
:10460C008052A262CFE70022E262D4E70A4A9342C8
:10461C0004D09A6842F4A0029A6009E0A2F5806284
:10462C00526812F4702FD3D1F3E7002384F82430AE
:10463C0010BD0220704700BF00280140002401403B
:10464C0038B503689A6812F0010F01D1002038BD0B
:10465C0004469A6822F001029A60FCF747FD054671
:10466C0023689B6813F0010F13D0FCF73FFD431B2D
:10467C00022BF5D923689B6813F0010FF0D0A36AC5
:10468C0043F01003A362E36A43F00103E3620120E9
:10469C00DDE70020DBE7000000287BD070B5044686
:1046AC00836A002B4DD02046FFF7CAFFA36A13F094
:1046BC00100369D1002867D1A26A22F4885222F033
:1046CC00020242F00202A2626268E1690A43217BA3
:1046DC0042EA4102A568B5F5807F02D0012D36D0A3
:1046EC001D46267D012E35D02668716821F469415E
:1046FC00294371602568AE68274931401143A96090
:10470C00A168B1F5807F01D0012902D12369013B59
:10471C001B052568E96A21F470010B43EB622368E1
:10472C0099681E4B0B409A4225D0A36A23F01203C2
:10473C0043F01003A362E36A43F00103E362012038
:10474C0027E0C36280F82430FCF77CFAABE74FF427
:10475C008075C6E731B9A169013945EA413141F4A7
:10476C000065C1E7A16A41F02001A162E16A41F054
:10477C000101E162B8E70023E362A36A23F00303BB
:10478C0043F00103A36204E0A36A43F01003A362A5
:10479C00012070BD01207047FDF7E1FFFE0E1FFFE9
:1047AC0098B108B50346D0F8B40210B10020C3F894
:1047BC00B40209B1C3F8B012012183F89C121A702B
:1047CC001846FDF7DFFC002008BD0220704719B128
:1047DC00C0F8B412002070470220704708B5FDF7EE
:1047EC0013FD002008BD08B5D0F8B4322BB11B68FE
:1047FC00984700B908BD0220FCE70220FAE708B58B
:10480C00D0F8B4325B689847002008BD38B5044630
:10481C0000F52A75284600F035F90123C4F89432C6
:10482C00B4F8AE32C4F8983294F8A81201F01F0311
:10483C00012B0ED0022B11D02BB101F080012046A0
:10484C00FDF7FDFC03E02946204600F0C9FA0020E4
:10485C0038BD2946204600F0F7FAF8E729462046ED
:10486C0000F022FBF3E738B504460D4691BB134626
:10487C00D0F89422032A03D0052A24D0084633E02A
:10488C00D0F86011D0F8642191420DD9891AC0F882
:10489C0060118A4206D98AB21946204600F036FCCD
:1048AC00284621E092B2F7E7D0F8B4321B691BB16D
:1048BC0090F89C22032A04D0204600F02FFC2846B6
:1048CC0012E09847F8E70021C0F89412FDF7B7FC06
:1048DC00284609E0D0F8B4329B6933B190F89C2299
:1048EC00032A04D19847002038BD0220FCE702209F
:1048FC00FAE738B504460D46002953D11346D0F8D3
:10490C009422022A0CD0042A00D01AB98021204605
:10491C00FDF795FC94F8A032012B3ED0284638BD0B
:10492C00016A426A91421BD8C169B1FBF2F302FBE6
:10493C0013132BB98A4203D8D0F8983299421CD35E
:10494C00D4F8B432DB681BB194F89C22032A21D032
:10495C0080212046FDF773FC204600F0EAFBD9E7E6
:10496C008A1A026292B2194600F0B9FB00231A4669
:10497C0019462046FDF79AFCCCE70022114600F0C0
:10498C00AEFB0021C4F898120B460A462046FDF7F0
:10499C008DFCBFE720469847DAE7002384F8A03265
:1049AC002846BCE7D0F8B4325B6933B190F89C224E
:1049BC00032A04D198470020B1E70220AFE7022078
:1049CC00ADE770B50446402300221146FDF724FCE8
:1049DC000125C4F858514026C4F8646133460022BE
:1049EC0080212046FDF718FCA561666284F89C5274
:1049FC000023C4F894326360C4F8A432D4F8B832FB
:104A0C002BB1D4F8B4325B680021204698470020C3
:104A1C0070BD01740020704790F89C3280F89D3274
:104A2C00042380F89C320020704790F89C32042BB1
:104A3C0001D00020704790F89D3280F89C32F8E746
:104A4C0008B590F89C32032B01D0002008BDD0F89B
:104A5C00B432DB69002BF8D09847F6E70346002008
:104A6C0002E00130C0B201331A78002AF9D1704744
:104A7C0008B54B88012B00D008BDC0F8A43200F05B
:104A8C004DFBF9E70B7803704B7843708B78CA7841
:104A9C0003EB022343800B794A7903EB02238380D7
:104AAC008B79CA7903EB0223C380704710B5044697
:104ABC008021FDF7C4FB00212046FDF7C0FB10BD93
:104ACC0030B583B005460C460023ADF806304A8855
:104ADC00130A013B062B00F2A480DFE803F0041854
:104AEC002CA2A2869300D0F8B0321B680DF10601FF
:104AFC00007C9847BDF806201AB1E388002B40F0E3
:104B0C009480E388002B00F09A8003B030BD037CC6
:104B1C0043B9D0F8B4329B6A0DF1060098470223D2
:104B2C004370E7E7D0F8B432DB6A0DF10600984722
:104B3C0002234370DEE7D2B2052A52D8DFE802F036
:104B4C0003101D2A3744D0F8B0325B6823B10DF145
:104B5C000601007C9847CDE72146FFF7A7FFD4E775
:104B6C00D0F8B0329B6823B10DF10601007C984758
:104B7C00C0E72146FFF79AFFC7E7D0F8B032DB68F1
:104B8C0023B10DF10601007C9847B3E72146FFF7EE
:104B9C008DFFBAE7D0F8B0321B6923B10DF10601D5
:104BAC00007C9847A6E72146FFF780FFADE7D0F8D9
:104BBC00B0325B6923B10DF10601007C984799E78F
:104BCC002146FFF773FFA0E7D0F8B0329B6923B101
:104BDC000DF10601007C98478CE72146FFF766FF34
:104BEC0093E72146FFF762FF8FE7037C33B9D0F8D8
:104BFC00B4325B6B0DF1060098477BE72146FFF75B
:104C0C0055FF82E7037C43B9D0F8B4321B6B0DF12E
:104C1C0006009847072343706CE72146FFF746FFD1
:104C2C0073E72146FFF742FF6FE79A4228BF1A4607
:104C3C00ADF806200146284600F044FA61E7284604
:104C4C0000F06CFA61E738B504468B88F3B9CB8871
:104C5C00E3B94B887F2B19D803F07F0590F89C3271
:104C6C00032B0CD080F89E522946FDF70FFB2046F3
:104C7C0000F054FA35B1022384F89C3209E0FFF7B6
:104C8C0015FF06E0012384F89C3202E02046FFF772
:104C9C000DFF38BD38B504460D468978284B197080
:104CAC0001290ED890F89C32022B0ED0032B21D068
:104CBC002946FFF7FBFE224B19782046FFF79FFD94
:104CCC0002E02946FFF7F2FE38BD81B141600323B3
:104CDC0080F89C32FFF787FD022803D0204600F0B5
:104CEC001DFAF1E729462046FFF7E0FEECE700F05D
:104CFC0015FAE9E789B1436899421DD0D9B2FFF79B
:104D0C007EFD0F4B197861602046FFF76CFD022881
:104D1C000DD0204600F002FAD6E7022380F89C3230
:104D2C004160FFF76CFD204600F0F8F9CCE729460E
:104D3C002046FFF7BBFEC7E700F0F0F9C4E700BF61
:104D4C00540C002008B5CB88012B0AD190F89C326A
:104D5C00022B09D9032B09D10122011D00F0B2F954
:104D6C0001E0FFF7A3FE08BD5BB213B9FFF79EFE8F
:104D7C00F9E70146002341F8083F012200F0A2F9AF
:104D8C00F1E708B590F89C32013B022B12D8CB8886
:104D9C00022B0CD10123C360D0F8A4320BB1032336
:104DAC00C360022200F10C0100F08CF908BDFFF782
:104DBC007DFEFBE7FFF77AFEF8E708B590F89C322A
:104DCC00013B022B09D84B88012B00D008BD0023D6
:104DDC00C0F8A43200F0A2F9F8E7FFF767FEF5E798
:104DEC0008B50B7803F06003202B05D0402B03D0C3
:104DFC0043B1FFF75BFE03E0D0F8B4329B689847F1
:104E0C00002008BD4B78092B1BD8DFE803F01117E5
:104E1C001A141A08051A0E0BFFF752FEF0E7FFF7EB
:104E2C0012FFEDE7FFF736FFEAE7FFF78BFFE7E747
:104E3C00FFF7A7FFE4E7FFF71BFEE1E7FFF7BDFF76
:104E4C00DEE7FFF733FEDBE738B505460C460B789B
:104E5C0003F06003202B06D0402B04D01BB1FFF7CE
:104E6C0025FE002038BD95F89C32013B022B16D84C
:104E7C002379012B0ED8D5F8B4329B6821462846ED
:104E8C009847E388002BECD10028EAD1284600F0A3
:104E9C0045F9E6E721462846FFF708FEE1E72146FB
:104EAC002846FFF703FEDCE770B505468B880C78C7
:104EBC0004F06004202C07D0DAB2402C04D05CB192
:104ECC00FFF7F4FD002405E0D5F8B4329B682846C2
:104EDC0098470024204670BD202C09D04E78012E16
:104EEC0033D0032E0AD0002E55D0FFF7DFFDF1E7AB
:104EFC00D0F8B4329B6898470446EBE790F89C32A4
:104F0C00022B04D0032B11D0FFF7D0FDE2E70AB13E
:104F1C00802A03D12846FFF7C9FDDBE71146FDF7D0
:104F2C008EF980212846FDF78AF9D3E74B8823B9FF
:104F3C001AB1802A01D0CB881BB1284600F0EEF8BC
:104F4C00C8E71146FDF77BF9F7E790F89C32022B86
:104F5C0004D0032B11D0FFF7A9FDBBE70AB1802ABF
:104F6C0003D12846FFF7A2FDB4E71146FDF767F918
:104F7C0080212846FDF763F9ACE74B88002BA9D1BB
:104F8C0012F07F0F03D1284600F0C8F8A2E71146B3
:104F9C00FDF75DF9F7E790F89C02022806D003288C
:104FAC0029D02846FFF782FD344693E70AB1802AC0
:104FBC0013D113F0800F15D102F07F0202EB8202A5
:104FCC00910001F5A8712944043100230B600222E1
:104FDC00284600F077F834467CE72846FFF766FD54
:104FEC00344677E702F07F0202EB82029100103127
:104FFC0029440431E9E75BB2002B1FDB02F00F0000
:10500C0000EB800005EB8000D0F8580120B3002B9A
:10501C0027DB02F07F0303EB83039C0004F5A874E9
:10502C002C4404340AB1802A24D1002323600222A8
:10503C002146284600F046F834464BE702F00F00B4
:10504C0000EB800005EB800080690028DFD128464A
:10505C00FFF72CFD34463DE72846FFF727FD344685
:10506C0038E702F07F0303EB83039C0010342C44DD
:10507C000434D7E711462846FDF7F1F810B10123A7
:10508C002360D4E700232360D1E7D0B170B50D467F
:10509C0016460446FFF7E2FC431C5B009BB23380D0
:1050AC002B7003236B70022307E001345A1CD2B21D
:1050BC00E8540233DBB20021A95420780028F4D143
:1050CC0070BD704708B513460222C0F89422C36124
:1050DC0003620A460021FDF7E1F8002008BD08B57F
:1050EC0013460A460021FDF7D9F8002008BD08B583
:1050FC0013460322C0F89422C0F85C31C0F860312A
:10510C000A460021FDF7D2F8002008BD08B5134669
:10511C000A460021FDF7CAF8002008BD08B5042393
:10512C00C0F8943200231A461946FDF7B7F8002050
:10513C0008BD08B50523C0F8943200231A46194659
:10514C00FDF7B4F8002008BD002070470020704720
:10515C0010B50146044C204600F076F9204600F0CC
:10516C0079F9002010BD00BF8402002010B5064C58
:10517C0000220649204600F05FF90549204600F060
:10518C0063F9002010BD00BF8402002040100020F5
:10519C00580C002010B5D0F8B842D0F8BC325BB136
:1051AC0094F80002FF2807D09B6894F8012221464E
:1051BC009847FF2384F80032002010BD432303805E
:1051CC0000487047B4000020432303800048704718
:1051DC00F80000204323038000487047480100205A
:1051EC000A230380004870473C01002038B5044670
:1051FC00D0F8B852FDF762F8C5F80C02D4F8B83202
:10520C004BB1D4F8BC32DB6805F50371D5F8040258
:10521C009847002038BD0220FCE710B5D0F8B82222
:10522C00D0F8C042F2B101EB810300EB8303DB69E0
:10523C004BB101EB810C04EBCC04A46BB3FBF4FC81
:10524C0004FB1C3323B10023C2F81432002010BD20
:10525C0001EB810300EB83030022DA611346FDF7B7
:10526C001DF8F3E70220F2E7F0B583B006460C46D2
:10527C00D0F8B87200238DF80730ADF804300B78F5
:10528C0013F0600527D0202D53D1CA88DAB113F062
:10529C00800F0CD0D0F8BC329B68394660789847A8
:1052AC00E28839463046FFF70DFF002544E04B7885
:1052BC0087F800328B7987F80132CA883946FFF7B4
:1052CC0016FF002538E0D0F8BC329B6800224878E5
:1052DC009847002530E04F780A2F14D00B2F20D0A0
:1052EC001FB1FFF7E3FB022526E090F89C32032B5D
:1052FC0003D0FFF7DBFB02251EE0022201A9FFF71A
:10530C00E1FE3D4618E090F89C32032B03D0FFF7EA
:10531C00CDFB022510E001220DF10701FFF7D2FEB3
:10532C000AE090F89C32032B06D0FFF7BFFB022556
:10533C0002E0FFF7BBFB0225284603B0F0BD38B5F1
:10534C0004468121FCF773FF0025E562012120460C
:10535C00FCF76DFFC4F86C5182212046FCF767FF07
:10536C002564D4F8B8324BB1D4F8BC325B6898479A
:10537C00D4F8B802FCF7ACFFC4F8B852002038BD22
:10538C0070B50446037CABBB4FF400730222812141
:10539C00FCF742FF0125E5624FF400730222294617
:1053AC002046FCF739FFC4F86C51082303228221F4
:1053BC002046FCF731FF012323644FF40770FCF700
:1053CC0083FF0546C4F8B80268B3D4F8BC321B6836
:1053DC0098470023C5F81432C5F81832267CCEB98C
:1053EC004FF40073D5F8042201212046FCF75EFF30
:1053FC00304670BD402302228121FCF70DFF0125B0
:10540C00E5624023022229462046FCF705FFC4F83A
:10541C006C51CAE74023D5F8042201212046FCF741
:10542C0045FF0026E4E70126E2E719B1C0F8BC12FB
:10543C000020704702207047D0F8B832C3F8081229
:10544C00C3F8102200207047D0F8B832C3F8041209
:10545C0000207047D0F8B82292B108B5037C43B94C
:10546C004FF40073D2F804220121FCF71FFF002037
:10547C0008BD4023D2F804220121FCF717FFF6E700
:10548C00022070470C480D490D4A002302E0D45805
:10549C00C4500433C4188C42F9D30A4A0A4C002372
:1054AC0001E013600432A242FBD3FCF72EFD00F0A6
:1054BC000FF8FBF70FFB7047000000208C01002059
:1054CC00C85500088C01002028140020FEE70000BD
:1054DC0070B500260C4D0D4C641BA410A64209D1CE
:1054EC0000F022F800260A4D0A4C641BA410A642B8
:1054FC0005D170BD55F8043B98470136EEE755F8D9
:10550C00043B98470136F2E7C0550008C055000827
:10551C00C0550008C455000803460244934200D10C
:10552C00704703F8011BF9E7F8B500BFF8BC08BCDD
:10553C009E467047F8B500BFF8BC08BC9E46704745
:10554C0002030405060708090A0B0C0D0E0F1010B8
:10555C000000000000000000000000000102030435
:10556C0006070809000000000102030453544D33E0
:10557C0032205669727475616C20436F6D506F7276
:10558C007400000053544D6963726F656C656374ED
:10559C00726F6E696373000043444320436F6E6601
:1055AC006967000043444320496E74657266616309
:0455BC006500000086
:0455C00031010008AD
:0455C4000D010008CD
:1055C800FC002C010A000000010000000700000098
:1055D80001000000100000000024F4006D1F000806
:1055E800791F00083D200008192000080520000840
:1055F800592000087D200008120100020202004024
:105608008304405700020102030100000403090457
:105618001A03000000000000000000000000000065
:1056280000000000000000000000000079510008A0
:1056380055510008595100085D5100088D53000864
:105648004B5300087552000800000000A1510008E3
:1056580027520008F951000800000000000000006F
:1056680000000000D5510008C9510008E1510008A8
:10567800ED51000809024300020100C0320904008C
:1056880000010202010005240010010524010001A7
:1056980004240202052406000107058203080010FD
:1056A80009040100020A0000000705010240000089
:1056B800070581024000000009024300020100C002
:1056C800320904000001020201000524001001054E
:1056D80024010001042402020524060001070582B2
:1056E8000308001009040100020A00000007050170
:1056F8000200020007058102000200000A060002FB
:10570800000000400100000009074300020104C036
:1057180032090400000102020100052400100105FD
:105728002401000104240202052406000107058261
:105738000308001009040100020A0000000705011F
:0C57480002400000070581024000000044
:04000005080054910A
:00000001FF
