:020000040800F2
:1000000000500020CD1600084107000843070008F3
:1000100045070008470700084907000800000000DE
:100020000000000000000000000000004B07000876
:100030004D070008000000004F07000851070008A6
:1000400015170008151700081517000815170008E0
:10005000151700081517000859070008630700085E
:1000600015170008151700086D0700081517000878
:1000700015170008151700081517000815170008B0
:1000800015170008151700081517000815170008A0
:100090001517000815170008151700081517000890
:1000A0001517000815170008151700081517000880
:1000B0001517000815170008151700081517000870
:1000C0001517000815170008151700081517000860
:1000D0001517000815170008151700081517000850
:1000E0007707000815170008151700080000000022
:1000F0000000000000000000000000000000000000
:0C01000000000000000000005FF808F1A3
:10010C0010B5054C237833B9044B13B10448AFF345
:10011C0000800123237010BD180000200000000097
:10012C007017000808B5034B1BB103490348AFF324
:10013C00008008BD000000001C00002070170008A3
:10014C002DE9F04389B00024049405940694079497
:10015C00434B9A6942F010029A619A6902F01002BC
:10016C000092009A9A6942F020029A619A6902F010
:10017C0020020192019A9A6942F004029A619A69EA
:10018C0002F004020292029A9A6942F008029A6101
:10019C009B6903F008030393039BDFF8C880224696
:1001AC004FF47871404601F091F92F4D22466021B1
:1001BC00284601F08BF94FF4005304932B4F05970D
:1001CC00069404A92A4801F06FF8122304930597AA
:1001DC00069404A9404601F067F84FF47873049331
:1001EC000126059606944FF00209CDF81C9004A93F
:1001FC00404601F059F804960597069404A9284640
:10020C0001F052F86023049305960694CDF81C90E7
:10021C0004A9284601F048F822462146062001F0A0
:10022C007BF9062001F0B0F922462146072001F0A7
:10023C0073F9072001F0A8F9224621460A2001F0A3
:10024C006BF90A2001F0A0F922462146282001F082
:10025C0063F9282001F098F909B0BDE8F08300BFDC
:10026C000010024000080140000C01400000111079
:10027C0000100140F8B5074600241AE00E4D00228C
:10028C004FF48071284601F021F9012606FA04F298
:10029C003A4052B2003A18BF01224FF4007128467E
:1002AC0001F014F932464FF48071284601F00EF932
:1002BC003444072CE2DDF8BD0008014010B50C46B3
:1002CC00FFF7D8FF2046FFF7D5FF064C0022202170
:1002DC00204601F0FBF801222021204601F0F6F81F
:1002EC0010BD00BF000C014038B50546002405E0E8
:1002FC000B4B195DFF20FFF7E1FF0134032C0DDCE4
:10030C002B19084A12789342F2DA074AD35C044A52
:10031C00115D064AD05CFFF7D1FFEEE738BD00BF98
:10032C0094170008020000203400002088170008F1
:10033C00084A13680849096801FB03F30748A0FB46
:10034C000310C00800EB80004100581A1060C0B2C6
:10035C00704700BF0400002008000020CDCCCCCC9E
:10036C0010B5084B01221A700024074B1C7004E0D6
:10037C00FFF7DEFF054B18550134054B1B78A342E4
:10038C00F6DC10BDDC0000204C0000203400002006
:10039C000200002008B5022804D010281BD0012828
:1003AC002ED008BD00F048FC1F4B1B68C01AB0F5DE
:1003BC00FA7F03D21D4B01221A70F2E71B4B1B78FC
:1003CC0013B11A4B00221A7000F036FC164B186051
:1003DC00FFF7C6FFE5E7154B1B783BB1144B1B78B9
:1003EC00022BDED9013B124A1370DAE7114B1B8842
:1003FC0040F289229342D4D832330E4A1380D0E78C
:10040C000A4B1B783BB10A4B1B78122BC9D8013312
:10041C00074A1370C5E7074B1B88962BC1D9323B93
:10042C00044A1380BDE700BFE0000020DD0000207F
:10043C00020000200000002008B51021FF20FFF76B
:10044C003DFF2021FF20FFF739FF4F21FF20FFF751
:10045C0035FF8F21FF20FFF731FF08BD10B5FFF7E7
:10046C00EBFF2E4B1B7803B910BD2D4C0122202124
:10047C00204601F02BF801224021204601F026F8FD
:10048C0001228021204601F021F80122402125483B
:10049C0001F01CF8244B1B684BB300F0CDFB224B36
:1004AC001B68C01AC82827D800F0C6FB1E4B1B6857
:1004BC00C01AB0F5C87F25D800F0BEFB1A4B1B68DC
:1004CC00C01AB0F5167F23D800F0B6FB164B1B688C
:1004DC00C01AB0F5487FC7D900224021114800F05E
:1004EC00F5FF00230D4A13700F4A1360BCE700F0B0
:1004FC00A3FB0D4B1860D0E700222021084800F028
:10050C00E5FFD1E700224021054800F0DFFFD3E7EB
:10051C0000228021024800F0D9FFD5E7DC00002042
:10052C0000080140000C01404800002070B5054651
:10053C00144BA3FB00235A091349A1FB0031CB0830
:10054C001E4603EB8303A0EB4304E4B2632808D8F4
:10055C00092D0CD88CB18F210C4B185DFFF7AEFE1A
:10056C0070BD2021094B985CFFF7A8FEF0E74F21E6
:10057C00064B985DFFF7A2FEECE78F210320FFF7F7
:10058C009DFEEDE71F85EB51CDCCCCCC8817000838
:10059C0072B6FEE708B50A480A4B03604FF4E13324
:1005AC00436000238360C36003610C22426183615A
:1005BC00C36101F055F800B908BDFFF7E9FF00BFB2
:1005CC00980000200044004000B58DB00023089333
:1005DC0009930A930B930393049305930693079340
:1005EC00019302931848194A0260436083604FF6E6
:1005FC00FF72C26003614361836100F08DF9D0B971
:10060C004FF48053089308A90F4800F0BDF9A0B926
:10061C0000230393049303A90B4800F069FA70B903
:10062C0000230193029301A9074800F08BFA40B90B
:10063C000DB05DF804FBFFF7ABFFFFF7A9FFFFF769
:10064C00A7FFFFF7A5FF00BF50000020002C0140C2
:10065C0000B591B02822002106A801F07BF80023F8
:10066C0001930293039304930593022306930122AF
:10067C000A9210220B920D934FF460130F9306A85D
:10068C0000F0F6FA80B90F230193022102910023A6
:10069C0003934FF480620492059301A800F028FDA7
:1006AC0020B911B05DF804FBFFF772FFFFF770FF84
:1006BC0010B500F0A3FAFFF7CBFFFFF741FDFFF7F2
:1006CC0069FFFFF781FFFFF74BFE00F0B5FA044618
:1006DC0019E0134B1878FFF707FE00F0ADFA031B77
:1006EC00104A128893420CD90D4A13780133DBB2AD
:1006FC001370092B02D9134600221A7000F09CFAD1
:10070C000446FFF7ABFE084B1B78002BF9D1074BC7
:10071C001B78002BDDD0064B1878FFF707FFF0E7AE
:10072C004C00002000000020DC000020DD00002038
:10073C0002000020FEE7FEE7FEE7FEE7FEE770475B
:10074C007047704708B500F06BFA08BD08B501207A
:10075C0000F0C2FE08BD08B5022000F0BDFE08BDC9
:10076C0008B5102000F0B8FE08BD08B54FF40050D5
:10077C0000F0B2FE08BD000082B00E4B9A6942F048
:10078C0001029A619A6902F001020092009ADA69F8
:10079C0042F08052DA61DB6903F080530193019BD4
:1007AC00054A536823F0E06343F00073536002B0D2
:1007BC00704700BF00100240000001400268094B66
:1007CC009A4200D0704782B003F564439A6942F4B0
:1007DC0000629A619B6903F400630193019B02B070
:1007EC00704700BF002C014000B587B00023029376
:1007FC000393049305930268114B9A4202D007B0FD
:10080C005DF804FB03F5E633DA6942F40032DA6191
:10081C00DA6902F400320092009A9A6942F00402FA
:10082C009A619B6903F004030193019B0C230293CF
:10083C0002230393059302A9024800F035FDDEE77D
:10084C00004400400008014010B4036A046A24F01C
:10085C0001040462846924F0F00C4CEA021223F0C7
:10086C000A030B438261036210BC704710B4046A24
:10087C0024F0100404628469036A24F4704C4CEA7A
:10088C00023223F0A00343EA01138261036210BC1D
:10089C007047836823F070030B4343F007038360B6
:1008AC007047000003681B4A90420AD0B0F1804F99
:1008BC0007D0A2F59432904203D002F580629042A8
:1008CC0003D123F070034A681343124A90420AD0B2
:1008DC00B0F1804F07D0A2F59432904203D002F5CC
:1008EC008062904203D123F44073CA68134323F00F
:1008FC0080034A69134303608B68C3620B6883628D
:10090C00044B984202D00123436170470B69036387
:10091C00F9E700BF002C014040B310B5044690F835
:10092C003D30F3B1022384F83D30214651F8040BDD
:10093C00FFF7B8FF012384F8463084F83E3084F882
:10094C003F3084F8403084F8413084F8423084F8E9
:10095C00433084F8443084F8453084F83D3000202E
:10096C0010BD80F83C30FFF729FFDBE70120704712
:10097C0010B4846824F47F4C42EA03220A4342EA0E
:10098C000C02826010BC704790F83C30012B66D092
:10099C0010B50446012380F83C30022380F83D302A
:1009AC000268936823F47F4323F0770393600B680A
:1009BC00602B40D022D8402B47D00BD9502B0ED1D6
:1009CC00CA6849680068FFF73FFF50212068FFF7AD
:1009DC0060FF04E0202B0CD008D9302B09D0012368
:1009EC0084F83D30002084F83C0010BD0BB1102B76
:1009FC00F5D119462068FFF74CFFF0E7702B0ED0AD
:100A0C00B3F5005FEBD1CB684A6889680068FFF7E3
:100A1C00AFFF2268936843F480439360DFE7CB68B1
:100A2C004A6889680068FFF7A3FF2268936843F05F
:100A3C0077039360D3E7CA6849680068FFF716FF2D
:100A4C0060212068FFF725FFC9E7CA68496800687C
:100A5C00FFF7FAFE40212068FFF71BFFBFE70220DB
:100A6C00704710B50468A26822F070024B681343FB
:100A7C0023F007030A681343A3604B68602B2CD048
:100A8C000CD8402B14D0502B06D10A698968006809
:100A9C00FFF7DAFE002028E0002026E0702B23D19F
:100AAC000B698A68C9680068FFF762FF00201CE0C8
:100ABC000B68052B1AD003681C6A1A6A22F0010213
:100ACC001A620268936923F0F003096943EA01137F
:100ADC00936103681C62002007E00A69896800685A
:100AEC00FFF7C4FE002000E0002010BD0120FCE751
:100AFC0090F83C30012B22D010B50446012380F82D
:100B0C003C30022380F83D30FFF7ABFF80B9226800
:100B1C00D36823F04003D3602268D36823F4804366
:100B2C00D360012384F83D30002384F83C3010BDA1
:100B3C00012084F83D00002384F83C30F7E70220C4
:100B4C007047000090F83C30012B2CD010B40123DE
:100B5C0080F83C30022380F83D3003685A689C686A
:100B6C0022F0700C0A6842EA0C025A6003680F4AC1
:100B7C0093420AD0B3F1804F07D0A2F5943293423E
:100B8C0003D002F58062934204D124F080044A68B9
:100B9C0014439C60012380F83D30002380F83C30E6
:100BAC00184610BC70470220704700BF002C014053
:100BBC0010B504460E4B18784FF47A73B3FBF0F370
:100BCC000C4A1068B0FBF3F000F0ECFC68B90F2C89
:100BDC0001D901200AE0002221464FF0FF3000F03D
:100BEC009BFC054B1C60002000E0012010BD00BFE9
:100BFC000C000020140000201000002008B5074A4B
:100C0C00136843F010031360032000F073FC002002
:100C1C00FFF7CEFFFFF7B0FD002008BD002002401B
:100C2C00034A1168034B1B780B441360704700BFD9
:100C3C00E40000200C000020014B1868704700BF36
:100C4C00E400002082B0084B1B68084AA2FB032377
:100C5C005B0A00FB03F3019300BF019B5A1E019238
:100C6C00002BF9D102B0704714000020D34D621054
:100C7C00002800F0F18170B582B00446036813F0CF
:100C8C00010F2CD0994B5B6803F00C03042B1DD087
:100C9C00964B5B6803F00C03082B12D06368B3F51A
:100CAC00803F41D0002B55D103F1804303F5043331
:100CBC001A6822F480321A601A6822F480221A60B0
:100CCC0037E08A4B5B6813F4803FE7D0874B1B6897
:100CDC0013F4003F03D06368002B00F0BF8123683E
:100CEC0013F0020F75D0814B5B6813F00C0F5FD0C3
:100CFC007E4B5B6803F00C03082B54D02369002B4C
:100D0C0000F08A807A4B01221A60FFF795FF0546A6
:100D1C00764B1B6813F0020F75D1FFF78DFF401B4C
:100D2C000228F5D903209EE1704A136843F48033FE
:100D3C001360636843B3FFF77FFF05466B4B1B687B
:100D4C0013F4003FCBD1FFF777FF401B6428F5D994
:100D5C00032088E1B3F5A02F09D0644B1A6822F464
:100D6C0080321A601A6822F480221A60E1E703F1DB
:100D7C008043A3F53C331A6842F480221A601A6847
:100D8C0042F480321A60D4E7FFF756FF0546574B02
:100D9C001B6813F4003FA2D0FFF74EFF401B6428E2
:100DAC00F5D903205FE1514B5B6813F4803FA5D16B
:100DBC004E4B1B6813F0020F03D02369012B40F03C
:100DCC004F814A4A136823F0F803616943EAC1036F
:100DDC001360236813F0080F33D0A369002B5CD089
:100DEC00434B0122C3F88024FFF726FF05463F4BF7
:100DFC005B6A13F0020F21D1FFF71EFF401B022884
:100E0C00F5D903202FE1394A136823F0F8036169FF
:100E1C0043EAC1031360DCE7354B00221A60FFF78D
:100E2C000BFF0546314B1B6813F0020FD1D0FFF7B7
:100E3C0003FF401B0228F5D9032014E10120FFF722
:100E4C0001FF236813F0040F00F09680274BDB6939
:100E5C0013F0805F34D1254BDA6942F08052DA61AD
:100E6C00DB6903F080530193019B0125214B1B6827
:100E7C0013F4807F26D0E368012B3DD0002B53D197
:100E8C0003F1804303F504331A6A22F001021A625B
:100E9C001A6A22F004021A6233E0154B0022C3F8DE
:100EAC008024FFF7C9FE0546104B5B6A13F0020F56
:100EBC00C7D0FFF7C1FE401B0228F5D90320D2E0B2
:100ECC000025D3E70B4A136843F480731360FFF7D4
:100EDC00B3FE0646074B1B6813F4807FCBD1FFF79C
:100EEC00ABFE801B6428F5D90320BCE00010024047
:100EFC0000004242007000405F4A136A43F0010355
:100F0C001362E36833B3FFF797FE06465A4B1B6A2E
:100F1C0013F0020F2FD1FFF78FFE801B41F28833A5
:100F2C009842F3D903209EE0052B09D0524B1A6A44
:100F3C0022F001021A621A6A22F004021A62E0E735
:100F4C004D4B1A6A42F004021A621A6A42F001020C
:100F5C001A62D6E7FFF770FE0646474B1B6A13F082
:100F6C00020F08D0FFF768FE801B41F288339842CD
:100F7C00F3D9032077E0E5B9E369002B72D03E4A40
:100F8C00526802F00C02082A56D0022B17D03B4BA9
:100F9C0000221A66FFF750FE0446374B1B6813F00D
:100FAC00007F47D0FFF748FE001B0228F5D903202D
:100FBC0059E0314AD36923F08053D361DCE72F4BDE
:100FCC0000221A66FFF738FE05462B4B1B6813F000
:100FDC00007F06D0FFF730FE401B0228F5D9032016
:100FEC0041E0236AB3F5803F1AD023494B6823F4C0
:100FFC007413226A606A024313434B601F4B012235
:10100C001A66FFF719FE04461B4B1B6813F0007F92
:10101C000ED1FFF711FE001B0228F5D9032022E0A8
:10102C00154A536823F40033A1680B435360DCE783
:10103C00002018E0002016E0012B16D00E4B5B6848
:10104C0003F48031226A914211D103F47013626A65
:10105C0093420ED1002006E001207047012002E0EF
:10106C00012000E0002002B070BD0120FBE7012050
:10107C00F9E70120F7E700BF0010024000004242F0
:10108C0086B0174B0FCB0DF1180C0CE90F0040F28A
:10109C000123ADF80430134B5B6803F00C02082AF3
:1010AC0002D0114806B07047C3F3834218326A4429
:1010BC0012F8100C13F4803F0DD00A4B5B68C3F38D
:1010CC00404318336B4413F8143C074A02FB00F0FE
:1010DC00B0FBF3F0E6E7054B03FB00F0E2E700BFE3
:1010EC00981700080010024000127A0000093D0019
:1010FC00002800F0A08070B50D460446524B1B68CA
:10110C0003F007038B420BD24F4A136823F00703FB
:10111C000B431360136803F007038B4240F08D8080
:10112C00236813F0020F17D013F0040F04D0474AB2
:10113C00536843F4E0635360236813F0080F04D042
:10114C00424A536843F460535360404A536823F057
:10115C00F003A1680B435360236813F0010F31D0E7
:10116C006368012B20D0022B25D0384A126812F06C
:10117C00020F64D035494A6822F0030213434B60D6
:10118C00FFF75AFD0646314B5B6803F00C036268AF
:10119C00B3EB820F16D0FFF74FFD801B41F2883363
:1011AC009842F0D9032045E0284A126812F4003F17
:1011BC00E0D101203EE0254A126812F0007FD9D11F
:1011CC00012037E0204B1B6803F00703AB420AD920
:1011DC001D4A136823F007032B431360136803F0B5
:1011EC000703AB422DD1236813F0040F06D0174A26
:1011FC00536823F4E063E1680B435360236813F0F6
:10120C00080F07D0114A536823F46053216943EA4D
:10121C00C1035360FFF734FF0C4B5B68C3F303133C
:10122C000B4AD35CD8400B4B18600B4B1868FFF77C
:10123C00BFFC002070BD012070470120FAE701209F
:10124C00F8E70120F6E700BF002002400010024042
:10125C00AC1700081400002010000020014B186887
:10126C00704700BF1400002008B5FFF7F7FF044BD0
:10127C005B68C3F30223034AD35CD84008BD00BFAC
:10128C0000100240BC17000808B5FFF7E7FF044B3D
:10129C005B68C3F3C223034AD35CD84008BD00BFCC
:1012AC0000100240BC17000870B582B00024A446A0
:1012BC00A6E0804DAA4210D007D97F4DAA420CD08F
:1012CC0005F58035AA4208D013E0A5F58015AA4291
:1012DC0003D005F57025AA4207D18A68002A58D098
:1012EC00012A51D04361082403E0A5F58015AA42D8
:1012FC00F3D0BEF1FF0F4ED80646BEF1FF0F4CD80F
:10130C004FEA8C0233680F25954023EA050304FA53
:10131C0002F2134333604B6813F0805F6ED0674B5F
:10132C009A6942F001029A619B6903F001030193EF
:10133C00019B4FEA9C02951C614B53F825600CF005
:10134C0003039D000F23AB4026EA03065D4B984236
:10135C0029D003F58063984200F08E8003F58063FA
:10136C00984200F08B8003F58063984219D00423D7
:10137C001AE0CC68BDE7CC680434BAE7CC68083412
:10138C00B7E7CC680C34B4E703610824B1E7002458
:10139C00AFE70424ADE7061DAFE7ACF108029200FD
:1013AC00B0E7032300E00023AB4033430232444D4B
:1013BC0045F822304B6813F4803F61D0424A1368E1
:1013CC0043EA0E0313604B6813F4003F5ED03E4AB1
:1013DC00536843EA0E0353604B6813F4801F5BD0D1
:1013EC00394A936843EA0E0393604B6813F4001F69
:1013FC0058D0354AD36843EA0E03D3600CF1010C84
:10140C000A6832FA0CF353D0012303FA0CF302EA04
:10141C00030E33EA0202F1D14A68122A3FF649AFB1
:10142C00122A3FF666AF01A555F822F0E712000824
:10143C007F130008891300089B130008FF12000893
:10144C00FF120008FF120008FF120008FF1200082C
:10145C00FF120008FF120008FF120008FF1200081C
:10146C00FF120008FF120008FF120008FF1200080C
:10147C00831300088F130008012395E7022393E7D9
:10148C00114A136823EA0E0313609CE70E4A536853
:10149C0023EA0E0353609FE70B4A936823EA0E037B
:1014AC009360A2E7084AD36823EA0E03D360A5E74A
:1014BC0002B070BD0000221000003110001002407C
:1014CC000000014000080140000401400AB1016124
:1014DC00704709040161704708B5054B5B6903420D
:1014EC0000D108BD024B5861FEF754FFF9E700BF6D
:1014FC0000040140074AD36823F4E0631B041B0C6F
:10150C00000200F4E060034343F0BF6343F4003394
:10151C00D360704700ED00E000B5194BDB68C3F3F6
:10152C000223C3F1070CBCF1040F28BF4FF0040CCD
:10153C0003F1040EBEF1060F18D9033B4FF0FF3E2A
:10154C000EFA0CFC21EA0C0199400EFA03F322EA84
:10155C000303194300280BDB0901C9B200F16040F9
:10156C0000F5614080F800135DF804FB0023E5E70B
:10157C0000F00F000901C9B2024B1954F4E700BF87
:10158C0000ED00E014ED00E0002807DB00F01F0286
:10159C00400901239340024A42F82030704700BFB3
:1015AC0000E100E00138B0F1807F0BD24FF0E02376
:1015BC005861054AF02182F8231000209861072217
:1015CC001A6170470120704700ED00E010B5044629
:1015DC000268136923F44053C1680B431361836899
:1015EC000269134342691A430168CB6823F4B05370
:1015FC0023F00C031343CB600268536923F440734C
:10160C0081690B4353610268134B9A4220D0FFF758
:10161C002BFE024602EB820202EB820263689B0005
:10162C00B2FBF3F20D48A0FB02314909642303FB22
:10163C0011231B013233A0FB03235B0903F0F002DF
:10164C0002EB011203F00F03216813448B6010BDF1
:10165C00FFF71AFE0246DDE7003801401F85EB510B
:10166C0058B310B5044690F83D300BB3242384F8DE
:10167C003D302268D36823F40053D3602046FFF733
:10168C00A5FF2268136923F4904313612268536900
:10169C0023F02A0353612268D36843F40053D360C8
:1016AC0000202064202384F83D3084F83E3010BDA7
:1016BC0080F83C30FFF798F8D8E701207047704766
:1016CC000C480D490D4A002302E0D458C450043391
:1016DC00C4188C42F9D30A4A0A4C002301E0136067
:1016EC000432A242FBD3FFF7EAFF00F00FF8FEF73B
:1016FC00DFFF70470000002018000020CC17000806
:10170C0018000020E8000020FEE7000070B500265D
:10171C000C4D0D4C641BA410A64209D100F022F80C
:10172C0000260A4D0A4C641BA410A64205D170BDBC
:10173C0055F8043B98470136EEE755F8043B9847BB
:10174C000136F2E7C4170008C4170008C4170008D4
:10175C00C817000803460244934200D1704703F8AF
:10176C00011BF9E7F8B500BFF8BC08BC9E467047F2
:0C177C00F8B500BFF8BC08BC9E467047E2
:10178800039F250D9949411F0109000010204F8F23
:1017980002030405060708090A0B0C0D0E0F1010AA
:1017A8000000000000000000000000000102030427
:0C17B800060708090000000001020304FD
:0417C40031010008E7
:0417C8000D01000807
:1017CC002C010A00010000000700000001000000CD
:0817DC00100000000024F400DD
:04000005080016CD0C
:00000001FF
