:020000040800F2
:1000000000500020AD140008F9040008FB040008AB
:10001000FD040008FF0400080105000800000000BE
:1000200000000000000000000000000003050008C0
:100030000505000800000000070500080905000884
:10004000F5140008F5140008F5140008F51400086C
:10005000F5140008F5140008110500081B05000838
:10006000F5140008F514000825050008F51400082B
:10007000F5140008F5140008F5140008F51400083C
:10008000F5140008F5140008F5140008F51400082C
:10009000F5140008F5140008F5140008F51400081C
:1000A000F5140008F5140008F5140008F51400080C
:1000B000F5140008F5140008F5140008F5140008FC
:1000C000F5140008F5140008F5140008F5140008EC
:1000D000F5140008F5140008F5140008F5140008DC
:1000E0002F050008F5140008F514000800000000B2
:1000F0000000000000000000000000000000000000
:0C01000000000000000000005FF808F1A3
:10010C0010B5054C237833B9044B13B10448AFF345
:10011C0000800123237010BD10000020000000009F
:10012C005015000808B5034B1BB103490348AFF346
:10013C00008008BD000000001400002050150008CD
:10014C002DE9F04389B00024049405940694079497
:10015C00424B9A6942F010029A619A6902F01002BD
:10016C000092009A9A6942F020029A619A6902F010
:10017C0020020192019A9A6942F004029A619A69EA
:10018C0002F004020292029A9A6942F008029A6101
:10019C009B6903F008030393039BDFF8C48022469A
:1001AC00E021404601F082F82E4D2246402128469F
:1001BC0001F07CF84FF4005304932B4F05970694F1
:1001CC0004A92A4800F060FF1223049305970694B3
:1001DC0004A9404600F058FFE0230493012605963D
:1001EC0006944FF00209CDF81C9004A9404600F08B
:1001FC004BFF04960597069404A9284600F044FF8B
:10020C004023049305960694CDF81C9004A9284627
:10021C0000F03AFF22462146062001F06DF8062038
:10022C0001F0A2F822462146072001F065F80720CC
:10023C0001F09AF8224621460A2001F05DF80A20C6
:10024C0001F092F822462146282001F055F828208A
:10025C0001F08AF809B0BDE8F08300BF001002403D
:10026C0000080140000C014000001110001001407A
:10027C00022804D010280ED0012815D070470E4B40
:10028C001B78012B03D00C4B01221A7070470A4BC0
:10029C0000221A707047094B1B68B3F5617FEDD8CB
:1002AC006433064A13607047044B1B68C72BE5D9AF
:1002BC00643B024A1360E1E7B80000200000002014
:1002CC0010B50446304B186800F098FB032C18D876
:1002DC00DFE804F002182E442C4C0022202120468A
:1002EC0000F0E4FF01224021204600F0DFFF012254
:1002FC008021204600F0DAFF01224021244800F042
:10030C00D5FF10BD214C01222021204600F0CEFF4C
:10031C0000224021204600F0C9FF01228021204606
:10032C0000F0C4FF01224021194800F0BFFFE8E7AC
:10033C00164C01222021204600F0B8FF012240215A
:10034C00204600F0B3FF00228021204600F0AEFFD3
:10035C00012240210E4800F0A9FFD2E70B4C0122EC
:10036C002021204600F0A2FF01224021204600F06F
:10037C009DFF01228021204600F098FF00224021A1
:10038C00034800F093FFBCE7000000200008014088
:10039C00000C014072B6FEE708B50A480A4B036030
:1003AC004FF4E133436000238360C36003610C228C
:1003BC0042618361C36101F043F800B908BDFFF7E6
:1003CC00E9FF00BF740000200044004000B58DB070
:1003DC000023089309930A930B93039304930593B7
:1003EC0006930793019302931848194A02604360DD
:1003FC0083604FF6FF72C26003614361836100F05A
:10040C0067F9D0B94FF48053089308A90F4800F04E
:10041C0097F9A0B900230393049303A90B4800F0A8
:10042C0043FA70B900230193029301A9074800F025
:10043C0065FA40B90DB05DF804FBFFF7ABFFFFF7B1
:10044C00A9FFFFF7A7FFFFF7A5FF00BF2C000020B7
:10045C00002C014000B591B02822002106A801F023
:10046C0069F80023019302930393049305930223E9
:10047C00069301220A9210220B920D934FF46013F3
:10048C000F9306A800F0E4FA80B90F230193022120
:10049C000291002303934FF480620492059301A808
:1004AC0000F016FD20B911B05DF804FBFFF772FFE8
:1004BC00FFF770FF38B500F07DFAFFF7CBFFFFF7C1
:1004CC003FFEFFF769FFFFF781FF00242546064B2F
:1004DC001C78002CFBD12846FFF7F2FE022DF5D834
:1004EC006C1CE4B2F2E700BFB8000020FEE7FEE7A8
:1004FC00FEE7FEE7FEE770477047704708B500F06F
:10050C006BFA08BD08B5012000F0D6FE08BD08B591
:10051C00022000F0D1FE08BD08B5102000F0CCFE82
:10052C0008BD08B54FF4005000F0C6FE08BD000031
:10053C0082B00E4B9A6942F001029A619A6902F0FC
:10054C0001020092009ADA6942F08052DA61DB69AA
:10055C0003F080530193019B054A536823F0E06339
:10056C0043F00073536002B0704700BF00100240AC
:10057C00000001400268094B9A4200D0704782B0DB
:10058C0003F564439A6942F400629A619B6903F42F
:10059C0000630193019B02B0704700BF002C014027
:1005AC0000B587B00023029303930493059302686C
:1005BC00114B9A4202D007B05DF804FB03F5E63309
:1005CC00DA6942F40032DA61DA6902F4003200923C
:1005DC00009A9A6942F004029A619B6903F0040341
:1005EC000193019B0C23029302230393059302A90D
:1005FC00024800F049FDDEE70044004000080140DD
:10060C0010B4036A046A24F001040462846924F0BF
:10061C00F00C4CEA021223F00A030B4382610362D2
:10062C0010BC704710B4046A24F01004046284698E
:10063C00036A24F4704C4CEA023223F0A00343EA20
:10064C0001138261036210BC7047836823F070034E
:10065C000B4343F0070383607047000003681B4A99
:10066C0090420AD0B0F1804F07D0A2F5943290425C
:10067C0003D002F58062904203D123F070034A68E4
:10068C001343124A90420AD0B0F1804F07D0A2F522
:10069C009432904203D002F58062904203D123F44D
:1006AC004073CA68134323F080034A691343036001
:1006BC008B68C3620B688362044B984202D001239F
:1006CC00436170470B690363F9E700BF002C0140DD
:1006DC0040B310B5044690F83D30F3B1022384F8D2
:1006EC003D30214651F8040BFFF7B8FF012384F885
:1006FC00463084F83E3084F83F3084F8403084F83B
:10070C00413084F8423084F8433084F8443084F823
:10071C00453084F83D30002010BD80F83C30FFF7A8
:10072C0029FFDBE70120704710B4846824F47F4C68
:10073C0042EA03220A4342EA0C02826010BC704770
:10074C0090F83C30012B66D010B50446012380F89C
:10075C003C30022380F83D300268936823F47F43D9
:10076C0023F0770393600B68602B40D022D8402B8A
:10077C0047D00BD9502B0ED1CA6849680068FFF7D7
:10078C003FFF50212068FFF760FF04E0202B0CD0C6
:10079C0008D9302B09D0012384F83D30002084F88F
:1007AC003C0010BD0BB1102BF5D119462068FFF79A
:1007BC004CFFF0E7702B0ED0B3F5005FEBD1CB689C
:1007CC004A6889680068FFF7AFFF2268936843F4B2
:1007DC0080439360DFE7CB684A6889680068FFF75D
:1007EC00A3FF2268936843F077039360D3E7CA684A
:1007FC0049680068FFF716FF60212068FFF725FFA6
:10080C00C9E7CA6849680068FFF7FAFE402120680A
:10081C00FFF71BFFBFE70220704710B50468A26802
:10082C0022F070024B68134323F007030A6813434A
:10083C00A3604B68602B2CD00CD8402B14D0502BC1
:10084C0006D10A6989680068FFF7DAFE002028E003
:10085C00002026E0702B23D10B698A68C9680068D8
:10086C00FFF762FF00201CE00B68052B1AD0036811
:10087C001C6A1A6A22F001021A620268936923F058
:10088C00F003096943EA0113936103681C620020B9
:10089C0007E00A6989680068FFF7C4FE002000E0E1
:1008AC00002010BD0120FCE790F83C30012B22D039
:1008BC0010B50446012380F83C30022380F83D300B
:1008CC00FFF7ABFF80B92268D36823F04003D360F5
:1008DC002268D36823F48043D360012384F83D302D
:1008EC00002384F83C3010BD012084F83D00002327
:1008FC0084F83C30F7E702207047000090F83C3059
:10090C00012B2CD010B4012380F83C30022380F84A
:10091C003D3003685A689C6822F0700C0A6842EA01
:10092C000C025A6003680F4A93420AD0B3F1804F0D
:10093C0007D0A2F59432934203D002F58062934221
:10094C0004D124F080044A6814439C60012380F88D
:10095C003D30002380F83C30184610BC7047022014
:10096C00704700BF002C014010B504460E4B1878A0
:10097C004FF47A73B3FBF0F30C4A1068B0FBF3F04E
:10098C0000F000FD68B90F2C01D901200AE000220B
:10099C0021464FF0FF3000F0AFFC054B1C600020EF
:1009AC0000E0012010BD00BF040000200C0000205E
:1009BC000800002008B5074A136843F010031360C1
:1009CC00032000F087FC0020FFF7CEFFFFF7B0FDFF
:1009DC00002008BD00200240034A1168034B1B781D
:1009EC000B441360704700BFBC00002004000020C3
:1009FC00014B1868704700BFBC00002038B5044696
:100A0C00FFF7F6FF0546B4F1FF3F02D0044B1B780D
:100A1C001C44FFF7EDFF401BA042FAD338BD00BFCA
:100A2C000400002082B0084B1B68084AA2FB032379
:100A3C005B0A00FB03F3019300BF019B5A1E01925A
:100A4C00002BF9D102B070470C000020D34D62107E
:100A5C00002800F0F18170B582B00446036813F0F1
:100A6C00010F2CD0994B5B6803F00C03042B1DD0A9
:100A7C00964B5B6803F00C03082B12D06368B3F53C
:100A8C00803F41D0002B55D103F1804303F5043353
:100A9C001A6822F480321A601A6822F480221A60D2
:100AAC0037E08A4B5B6813F4803FE7D0874B1B68B9
:100ABC0013F4003F03D06368002B00F0BF81236860
:100ACC0013F0020F75D0814B5B6813F00C0F5FD0E5
:100ADC007E4B5B6803F00C03082B54D02369002B6E
:100AEC0000F08A807A4B01221A60FFF781FF0546DD
:100AFC00764B1B6813F0020F75D1FFF779FF401B83
:100B0C000228F5D903209EE1704A136843F4803320
:100B1C001360636843B3FFF76BFF05466B4B1B68B1
:100B2C0013F4003FCBD1FFF763FF401B6428F5D9CA
:100B3C00032088E1B3F5A02F09D0644B1A6822F486
:100B4C0080321A601A6822F480221A60E1E703F1FD
:100B5C008043A3F53C331A6842F480221A601A6869
:100B6C0042F480321A60D4E7FFF742FF0546574B38
:100B7C001B6813F4003FA2D0FFF73AFF401B642818
:100B8C00F5D903205FE1514B5B6813F4803FA5D18D
:100B9C004E4B1B6813F0020F03D02369012B40F05E
:100BAC004F814A4A136823F0F803616943EAC10391
:100BBC001360236813F0080F33D0A369002B5CD0AB
:100BCC00434B0122C3F88024FFF712FF05463F4B2D
:100BDC005B6A13F0020F21D1FFF70AFF401B0228BA
:100BEC00F5D903202FE1394A136823F0F803616922
:100BFC0043EAC1031360DCE7354B00221A60FFF7B0
:100C0C00F7FE0546314B1B6813F0020FD1D0FFF7EE
:100C1C00EFFE401B0228F5D9032014E10120FFF759
:100C2C0001FF236813F0040F00F09680274BDB695B
:100C3C0013F0805F34D1254BDA6942F08052DA61CF
:100C4C00DB6903F080530193019B0125214B1B6849
:100C5C0013F4807F26D0E368012B3DD0002B53D1B9
:100C6C0003F1804303F504331A6A22F001021A627D
:100C7C001A6A22F004021A6233E0154B0022C3F800
:100C8C008024FFF7B5FE0546104B5B6A13F0020F8C
:100C9C00C7D0FFF7ADFE401B0228F5D90320D2E0E8
:100CAC000025D3E70B4A136843F480731360FFF7F6
:100CBC009FFE0646074B1B6813F4807FCBD1FFF7D2
:100CCC0097FE801B6428F5D90320BCE0001002407D
:100CDC0000004242007000405F4A136A43F0010377
:100CEC001362E36833B3FFF783FE06465A4B1B6A65
:100CFC0013F0020F2FD1FFF77BFE801B41F28833DC
:100D0C009842F3D903209EE0052B09D0524B1A6A66
:100D1C0022F001021A621A6A22F004021A62E0E757
:100D2C004D4B1A6A42F004021A621A6A42F001022E
:100D3C001A62D6E7FFF75CFE0646474B1B6A13F0B8
:100D4C00020F08D0FFF754FE801B41F28833984203
:100D5C00F3D9032077E0E5B9E369002B72D03E4A62
:100D6C00526802F00C02082A56D0022B17D03B4BCB
:100D7C0000221A66FFF73CFE0446374B1B6813F043
:100D8C00007F47D0FFF734FE001B0228F5D9032063
:100D9C0059E0314AD36923F08053D361DCE72F4B00
:100DAC0000221A66FFF724FE05462B4B1B6813F036
:100DBC00007F06D0FFF71CFE401B0228F5D903204C
:100DCC0041E0236AB3F5803F1AD023494B6823F4E2
:100DDC007413226A606A024313434B601F4B012257
:100DEC001A66FFF705FE04461B4B1B6813F0007FC9
:100DFC000ED1FFF7FDFD001B0228F5D9032022E0E0
:100E0C00154A536823F40033A1680B435360DCE7A5
:100E1C00002018E0002016E0012B16D00E4B5B686A
:100E2C0003F48031226A914211D103F47013626A87
:100E3C0093420ED1002006E001207047012002E011
:100E4C00012000E0002002B070BD0120FBE7012072
:100E5C00F9E70120F7E700BF001002400000424212
:100E6C0086B0174B0FCB0DF1180C0CE90F0040F2AC
:100E7C000123ADF80430134B5B6803F00C02082A15
:100E8C0002D0114806B07047C3F3834218326A444B
:100E9C0012F8100C13F4803F0DD00A4B5B68C3F3AF
:100EAC00404318336B4413F8143C074A02FB00F020
:100EBC00B0FBF3F0E6E7054B03FB00F0E2E700BF05
:100ECC00681500080010024000127A0000093D006D
:100EDC00002800F0A08070B50D460446524B1B68EC
:100EEC0003F007038B420BD24F4A136823F007031E
:100EFC000B431360136803F007038B4240F08D80A3
:100F0C00236813F0020F17D013F0040F04D0474AD4
:100F1C00536843F4E0635360236813F0080F04D064
:100F2C00424A536843F460535360404A536823F079
:100F3C00F003A1680B435360236813F0010F31D009
:100F4C006368012B20D0022B25D0384A126812F08E
:100F5C00020F64D035494A6822F0030213434B60F8
:100F6C00FFF746FD0646314B5B6803F00C036268E5
:100F7C00B3EB820F16D0FFF73BFD801B41F2883399
:100F8C009842F0D9032045E0284A126812F4003F39
:100F9C00E0D101203EE0254A126812F0007FD9D141
:100FAC00012037E0204B1B6803F00703AB420AD942
:100FBC001D4A136823F007032B431360136803F0D7
:100FCC000703AB422DD1236813F0040F06D0174A48
:100FDC00536823F4E063E1680B435360236813F018
:100FEC00080F07D0114A536823F46053216943EA70
:100FFC00C1035360FFF734FF0C4B5B68C3F303135F
:10100C000B4AD35CD8400B4B18600B4B1868FFF79E
:10101C00ABFC002070BD012070470120FAE70120D5
:10102C00F8E70120F6E700BF002002400010024064
:10103C007C1500080C00002008000020014B1868EB
:10104C00704700BF0C00002008B5FFF7F7FF044BFA
:10105C005B68C3F30223034AD35CD84008BD00BFCE
:10106C00001002408C15000808B5FFF7E7FF044B91
:10107C005B68C3F3C223034AD35CD84008BD00BFEE
:10108C00001002408C15000870B582B00024A446F4
:10109C00A6E0804DAA4210D007D97F4DAA420CD0B1
:1010AC0005F58035AA4208D013E0A5F58015AA42B3
:1010BC0003D005F57025AA4207D18A68002A58D0BA
:1010CC00012A51D04361082403E0A5F58015AA42FA
:1010DC00F3D0BEF1FF0F4ED80646BEF1FF0F4CD831
:1010EC004FEA8C0233680F25954023EA050304FA76
:1010FC0002F2134333604B6813F0805F6ED0674B82
:10110C009A6942F001029A619B6903F00103019311
:10111C00019B4FEA9C02951C614B53F825600CF027
:10112C0003039D000F23AB4026EA03065D4B984258
:10113C0029D003F58063984200F08E8003F580631C
:10114C00984200F08B8003F58063984219D00423F9
:10115C001AE0CC68BDE7CC680434BAE7CC68083434
:10116C00B7E7CC680C34B4E703610824B1E700247A
:10117C00AFE70424ADE7061DAFE7ACF1080292001F
:10118C00B0E7032300E00023AB4033430232444D6D
:10119C0045F822304B6813F4803F61D0424A136803
:1011AC0043EA0E0313604B6813F4003F5ED03E4AD3
:1011BC00536843EA0E0353604B6813F4801F5BD0F3
:1011CC00394A936843EA0E0393604B6813F4001F8B
:1011DC0058D0354AD36843EA0E03D3600CF1010CA6
:1011EC000A6832FA0CF353D0012303FA0CF302EA27
:1011FC00030E33EA0202F1D14A68122A3FF649AFD4
:10120C00122A3FF666AF01A555F822F0C710000868
:10121C005F110008691100087B110008DF1000083D
:10122C00DF100008DF100008DF100008DF100008D6
:10123C00DF100008DF100008DF100008DF100008C6
:10124C00DF100008DF100008DF100008DF100008B6
:10125C00631100086F110008012395E7022393E73F
:10126C00114A136823EA0E0313609CE70E4A536875
:10127C0023EA0E0353609FE70B4A936823EA0E039D
:10128C009360A2E7084AD36823EA0E03D360A5E76C
:10129C0002B070BD0000221000003110001002409E
:1012AC000000014000080140000401400AB1016146
:1012BC00704709040161704708B5054B5B6903422F
:1012CC0000D108BD024B5861FEF7D2FFF9E700BF11
:1012DC0000040140074AD36823F4E0631B041B0C91
:1012EC00000200F4E060034343F0BF6343F40033B7
:1012FC00D360704700ED00E000B5194BDB68C3F319
:10130C000223C3F1070CBCF1040F28BF4FF0040CEF
:10131C0003F1040EBEF1060F18D9033B4FF0FF3E4C
:10132C000EFA0CFC21EA0C0199400EFA03F322EAA6
:10133C000303194300280BDB0901C9B200F160401B
:10134C0000F5614080F800135DF804FB0023E5E72D
:10135C0000F00F000901C9B2024B1954F4E700BFA9
:10136C0000ED00E014ED00E0002807DB00F01F02A8
:10137C00400901239340024A42F82030704700BFD5
:10138C0000E100E00138B0F1807F0BD24FF0E02398
:10139C005861054AF02182F8231000209861072239
:1013AC001A6170470120704700ED00E010B504464B
:1013BC000268136923F44053C1680B4313618368BB
:1013CC000269134342691A430168CB6823F4B05392
:1013DC0023F00C031343CB600268536923F440736E
:1013EC0081690B4353610268134B9A4220D0FFF77B
:1013FC002BFE024602EB820202EB820263689B0028
:10140C00B2FBF3F20D48A0FB02314909642303FB44
:10141C0011231B013233A0FB03235B0903F0F00201
:10142C0002EB011203F00F03216813448B6010BD13
:10143C00FFF71AFE0246DDE7003801401F85EB512D
:10144C0058B310B5044690F83D300BB3242384F800
:10145C003D302268D36823F40053D3602046FFF755
:10146C00A5FF2268136923F4904313612268536922
:10147C0023F02A0353612268D36843F40053D360EA
:10148C0000202064202384F83D3084F83E3010BDC9
:10149C0080F83C30FFF784F8D8E70120704770479C
:1014AC000C480D490D4A002302E0D458C4500433B3
:1014BC00C4188C42F9D30A4A0A4C002301E0136089
:1014CC000432A242FBD3FFF7EAFF00F00FF8FEF75D
:1014DC00F1FF704700000020100000209C15000850
:1014EC0010000020C0000020FEE7000070B50026B0
:1014FC000C4D0D4C641BA410A64209D100F022F82F
:10150C0000260A4D0A4C641BA410A64205D170BDDE
:10151C0055F8043B98470136EEE755F8043B9847DD
:10152C000136F2E79415000894150008941500088C
:10153C009815000803460244934200D1704703F803
:10154C00011BF9E7F8B500BFF8BC08BC9E46704714
:0C155C00F8B500BFF8BC08BC9E46704704
:1015680002030405060708090A0B0C0D0E0F1010DC
:101578000000000000000000000000000102030459
:0C1588000607080900000000010203042F
:041594003101000819
:041598000D01000839
:10159C00F401000001000000100000000024F40021
:04000005080014AD2E
:00000001FF
